:10000000F04A0020714D00006D4D00006D4D000064
:1000100000000000000000000000000000000000E0
:10002000000000000000000000000000F5270000B4
:10003000000000000000000069280000AD2800005A
:100040006D4D00006D4D00006D4D00006D4D0000C8
:100050006D4D00006D4D00006D4D00006D4D0000B8
:100060006D4D0000A90B0000BD0B0000D10B00007E
:10007000E50B000000000000000000006D4D0000D6
:100080006D4D00006D4D00006D4D00006D4D000088
:100090006D4D000000000000000000006D4D0000EC
:1000A0006D4D00006D4D00006D4D00006D4D000068
:1000B00010B5064C2378002B07D1054B002B02D03E
:1000C000044800E000BF0123237010BD400400205D
:1000D00000000000FC6C000008B5084B002B03D0AA
:1000E0000748084900E000BF07480368002B03D019
:1000F000064B002B00D0984708BDC046000000000A
:10010000FC6C000044040020FC6C000000000000B7
:1001100082B0094B7B44002801D172B6FEE7074A42
:100120009A5801921278022A03D1044A9A5801235C
:10013000137002B07047C046E46B0000000100007D
:1001400010B582B01A4C7C44002801D172B6FEE78B
:10015000184BE35818780138072827D805F080FB9A
:100160000A04260426262604124BE3580193012391
:10017000019A1370802292040F4B5A610F4BE3587F
:100180001A68D369002BFCD151680D4B0B405360AA
:100190000A4BE0580023837100210A4BE35898472B
:1001A000094BE3581868094BE358984702B010BD53
:1001B000B26B00000001000000440041700100002B
:1001C000FFFFFDFF40000000B001000050010000F3
:1001D000F0B54F464646C0B485B04E4C7C444E4BBD
:1001E000E35803930123039A13704B4BE758B94626
:1001F000CC2600254A461378032B2ED0082B58D046
:10020000012B00D081E0454BE358AA221A705A70A6
:100210009A70434BE3581F68424BE3589847021CBF
:100220000095381C02212B1C3F4FE759B8473F4B24
:10023000E3581B68DA69002AFCD159683C4A0A4035
:100240005A603A4BE0588571344BE3580393191CBC
:100250000322384BE358984757E0304BE3581E7061
:100260005E709E70DE701E712D4BE3581A689046CA
:100270002C4BE3589847021C0095404602212B1C4A
:10028000294FE759B847294BE3581B68DA69002A18
:10029000FCD15968264A0A405A60244BE0588571BF
:1002A0001E4BE3580393191C0522224BE358984731
:1002B0002BE01A4BE358EE221A705A709A70DA70DB
:1002C0001A71174BE3581A689046164BE358984733
:1002D000021C0095404602212B1C134FE759B847DA
:1002E000124BE3581968CA69002AFCD14A68104BBE
:1002F00013404B600D4BE0588571084BE358039356
:10030000191C05220B4BE3589847281C0A4BE3584D
:1003100098476FE71C6B000000010000C000000060
:100320007C010000F40000006C010000700100007E
:10033000FFFFFDFF6402000074010000F0B589B00A
:100340002F4C7C442F4BE3589847012707AD6F7023
:100350000026AE702F701B20291C2B4BE3580493F2
:1003600098471920291C049DA847284BE358984713
:10037000274BE3589847274BE3589847264BE358B9
:10038000049302230093254BE358019302960396AE
:1003900004982349794446220023224D6559A847F1
:1003A000214BE3581F70BFF35F8F62B61F4BE358BA
:1003B00000931F4878440321002200231D4D6559F6
:1003C000A8471D4BE75838601C4BE35800931C4866
:1003D0007844012100220123A8471A4BE3581860F2
:1003E0003D68194BE3589847021C0096281C0121D0
:1003F0000023164D6559A847154BE3589847FEE76B
:10040000B669000034000000D00100009401000033
:100410004C020000EC000000E8010000B001000008
:100420006C59000068000000B0000000C801000026
:1004300054590000140000007C0100000C02000070
:1004400040590000FC000000F40000006C010000B6
:10045000E401000010B5031C4908402099420CD368
:100460000024C91A601C80B28B4201D8041CF8E732
:100470004020FF2C01D81480002010BD0000000097
:10048000F0B55F4656464D464446F0B487B0061C6C
:100490000D1C049210AA1078674A7A44311C41431B
:1004A0004024A94200D9BAE0002B4FD1634BD35866
:1004B00002930021321C0023029CA04783462E1C7D
:1004C000002700200021002200233F25AC46012404
:1004D000A046029003916146203903D445468D40E1
:1004E000A94605E020206146441A4546E540A94654
:1004F0004046614688408246101C191C80185941AC
:10050000021C0B1C5C464D462C4202D04246024364
:100510000B1C9F420CD801D1964209D8921BBB41BB
:100520005046029908434946039C21430290039197
:100530006546013DAC46CED2029803993D4B3C4AFC
:10054000121A8B41110C1B04194365E00021012B89
:1005500062D16C0FED00AB46384BD3580293321C7E
:100560000023029EB047061C0F1C002301250296A3
:1005700003979A46A1465746FFB20597002080464A
:10058000002200233F24271C203F03D4291CB9400C
:10059000019104E02026371B281CF8400190291CFB
:1005A000A1400091101C191C80185941021C0B1C01
:1005B0005E46009F3E40B446019E4F463E40674621
:1005C0003E4302D02A1C02430B1C039898420BD8CE
:1005D00002D10299914207D8029E039F921BBB4110
:1005E000474600980743B846013CCCD241465246A4
:1005F0008B1ADB08124CA34208D9059A0132D2B2F9
:1006000005920126B2445746082FB4D140240598DC
:10061000082804D041031943049C21800024201C95
:1006200007B03CBC90469946A246AB46F0BDC046DA
:1006300000000000010000005E680000C40000002F
:10064000FF1F0000C046C04630B585B0051C124CE7
:100650007C44124B7B441B78002B01D0002910D026
:1006600003A90D7013200E4BE358984713200D4B30
:10067000E35898470C4B7B445D7001221A700020B0
:1006800008E00A4B7B445A781D20551B6A1E954191
:100690006D42284005B030BDA866000018FEFF1F5F
:1006A00088000000C4010000F6FDFF1FE8FDFF1FE9
:1006B00000B5284B984219D003D8274B984207D051
:1006C0003EE0264B98421FD0254B98422AD037E077
:1006D000002003293DD8081C05F0C2F802340406A6
:1006E000204836E0204834E0204832E0002003294A
:1006F0002FD8081C05F0B4F802280406032028E0CF
:100700001B4826E01B4824E00020032921D8081CB0
:1007100005F0A6F8021C040617481AE0174818E06E
:10072000174816E00020032913D8081C05F098F894
:100730000210040613480CE013480AE0134808E0CE
:10074000002006E0124804E0124802E0124800E0EF
:10075000124800BD000C0042000800420010004298
:100760000014004203000400030006000300070019
:1007700003001E0003001F000300080003000A001E
:1007800003000B000300100003001200030013001D
:10079000030005000300010003000900030011002D
:1007A00070B584B00F4A7A44694670CA70C1126845
:1007B0000A60031C009A82420FD0019C844208D038
:1007C000029D854207D00020039E9E4207D1032050
:1007D00004E0012002E0022000E00020C0B204B0EA
:1007E00070BDC0467255000030B585B03C4C7C44AD
:1007F0003C4BE3581B68DA69002AFCD15968802217
:1008000092020A435A60374AA25802920122029980
:100810008A71DA69002AFCD1334BE35802931B78C2
:10082000032B04D0082B44D0012B56D120E02E4BB3
:10083000E35802930423029A13702C4BE3581D686B
:100840002B4BE3589847021C00230093281C0721D8
:10085000284D6559A847234BE3580293264BE3588C
:1008600003930298191C0522244BE358984734E05F
:100870001D4BE35802930223029D2B701B4BE35840
:100880001D681B4BE3589847021C00230093281C4B
:100890000721184D6559A847124BE3580293164B90
:1008A000E35803930298191C0522144BE358984708
:1008B00013E00E4BE3581D680D4BE3589847021C9C
:1008C00000230093281C07210A4D6559A847064BB1
:1008D000E3580293012302990B7005B030BDC04666
:1008E0000A65000070010000000100007C010000AA
:1008F0002C0100006C01000038000000F001000035
:1009000000B583B03C4979443C4BCB581A68D36955
:10091000002BFCD150683A4B03405360374BCB5807
:100920000193002301988371364BCB5801931B78B8
:10093000022B02D0042B2DD05CE0334BCB581A781D
:100940005B78934256D1304BCB5801939B789342BE
:1009500050D12D4BCB580193DB7893424AD12A4B8F
:10096000CB5801931B79934244D1BB2A42D1254BEA
:10097000CB5801930323019A1370244BCB5818686A
:10098000234BCB589847012834D180225205214B64
:100990001A602FE01C4BCB581A785B78934229D110
:1009A000194BCB5801939B78934223D1164BCB58CC
:1009B0000193DB7893421DD1134BCB5801931B79E4
:1009C000934217D1DD2A15D180229204124B9A61ED
:1009D0000C4BCB5801930823019803700B4BCB5859
:1009E00018680B4BCB589847012803D18022520539
:1009F000084B1A6003B000BDF263000070010000F4
:100A0000FFFFFDFF0001000038000000B001000002
:100A1000A800000004ED00E000440041F0B593B0F0
:100A2000314D7D448023DB050293002302AA5360ED
:100A300000219372D37201242420145425201454CD
:100A4000262013542720135493622C2013542D2056
:100A50001354536113820020D0761176117713203E
:100A600090765177E12149021162138154768023F7
:100A70005B03D3601D4B13631D4B536301235B4228
:100A80009363D3631B4BEF58381C1B491B4BEB582C
:100A900098473E68301C1A4BEB5898471F23184064
:100AA0008440184B1C603A68D369002BFCD1326833
:100AB0000223134333600F4BEC58201C1249794436
:100AC0000122124BEE58B0473125625D02231343D9
:100AD0006355201C0E4979440022B047625D012312
:100AE0001343635513B0F0BDD66200000200160038
:100AF0000200170070010000001400428401000091
:100B00007C00000000E100E03FFEFFFF0C00000061
:100B10000FFDFFFF7047C04630B50F4A7A440F4BB8
:100B20007B441B78002B10D10D4B7B440D4D7D4435
:100B30005D600D4C1259002414609D605460DD60AE
:100B400094601D61D46001221A708000074B7B44C1
:100B50001818416030BDC046DC61000054F9FF1F29
:100B60004AF9FF1FE3FFFFFF0801000026F9FF1FFE
:100B700070B584B0061C084C7C4403AD281C0749A2
:100B800079440422064BE3589847301C054BE35840
:100B90009847285604B070BD80610000A85100003D
:100BA0005C0000005C02000008B5034B7B445B68FE
:100BB0000020984708BDC046C8F8FF1F08B5034B82
:100BC0007B449B680120984708BDC046B4F8FF1FCE
:100BD00008B5034B7B44DB680220984708BDC0463C
:100BE000A0F8FF1F08B5034B7B441B6903209847FF
:100BF00008BDC0468CF8FF1FF0B55F4656464D460F
:100C00004446F0B49BB0061C0C1C0892C64D7D44B3
:100C100009953160081CC54BEB589847021C2368A6
:100C20000520DF0700D577E123681C20990700D550
:100C300072E1BF4B186A951C0127391CA94001437A
:100C400019622D23089D1F1CEB5C19A90B7014322F
:100C5000D2B29146101CB74B099DEB5898474846B5
:100C6000B54BEB589847089DE85D0021B34B099DB3
:100C7000EB589847089DEB7A73712423EB5CB371B2
:100C80002523EB5CF371EB7E33722B7F7372376835
:100C9000B946381CA54B099DEB58984714300022E3
:100CA0006B464E331A80089D2D8AA8468023DB01AF
:100CB0009D421CD08023DB019D4204D880239B01F0
:100CC0009D420ED007E0C023DB019D420CD0802363
:100CD0001B029D4202D0102700250AE003270025B1
:100CE00007E01027012504E00827012501E0082777
:100CF0000025089909680A91089AD2680C92089B05
:100D00005B690D930899097E0E912623089AD35C9E
:100D10009B4653689A46002B17D080235B059A4563
:100D20003CD12723D35C002B3CD1156AC0B2844B45
:100D3000099AD3589847011C281C6A464E32814BA9
:100D4000099DEB589847031C29E027230899CB5CA1
:100D5000002B0FD00A6A07928B6A06930097101C2B
:100D6000191C6A464E322B1C774D099F7F59B84794
:100D7000031C14E00899096A1091C0B2704B099ADB
:100D8000D3589847011C009710986A464E322B1C86
:100D90006D4D099F7F59B847031C00E00023181EC2
:100DA00000D0B9E0089D6B7E002B02D0AB7E4F4691
:100DB000BB733268089F099DD369002BFCD108974B
:100DC00009956B464E331B88484683810C990A9DD2
:100DD00029430D9F394350460143424611430E9D1E
:100DE0002B0219435F467B0719432723089DEB5CC1
:100DF000002B01D104231943089D287F40026B7EFC
:100E00009B0218436B7F1B0218432423EB5C5B049B
:100E100018432523EB5C1B041843EB7A18432B89FA
:100E2000FF2B04D0802252041143184306E0089D92
:100E3000EB7E002B02D08023DB0419432C23089D7A
:100E4000EB5C002B03D1414B9B789F0701D580239E
:100E500019433268089F099DD369002BFCD108977C
:100E600009954A4650603268D369002BFCD1089737
:100E700009954B461960802218AB1A7000225A70EF
:100E8000DA709A703D6B14957F6B15970898806B9C
:100E900016900899C96B1791002718AA099DA046BA
:100EA000141CF9B2BB0014AA9858002803D140467C
:100EB000274BEB589847431C06D02070000CC0B25B
:100EC000211C244BEB5898470137042FE9D100230C
:100ED000F36033617361B361F3613362B362736270
:100EE0000022F385B3853023F2543123F2543223A8
:100EF000F2543323F25430680C4BEB589847041CDF
:100F0000154BEB580A93191C144BEB589847144B8C
:100F1000EB58A400E65000201BB03CBC904699461C
:100F2000A246AB46F0BDC046EA6000005C0200008D
:100F30000004004088000000C4010000C00100005F
:100F40003C010000D800000020000000002000410B
:100F50007C02000068020000D401000018010000BB
:100F600008010000F0B5474680B482B0051C0F1C94
:100F700090460F4C7C4406680E4BE3589847EB8D27
:100F80009BB2002B04D00C4BE358984705200BE094
:100F90004346EB85084BE3589847AF62052233235D
:100FA000EA540123B375002002B004BC9046F0BDA2
:100FB000845D0000A000000008000000F0B5474676
:100FC00080B482B0041C0F1C9046144D7D4406680A
:100FD000134BEB589847A38D9BB2002B04D0114BB9
:100FE000EB589847052015E04346A3850D4BEB5879
:100FF0009847676205223223E2540423B375237AAB
:10100000002B01D02023B375637A0020002B01D080
:101010000823B37502B004BC9046F0BD2C5D0000FF
:10102000A000000008000000931C9B00C31859603A
:10103000012393401A1C3023C15C0A43C2547047F9
:1010400030B583B0074C7C441723002A07D0C579FC
:101050001C23002D03D0044BE3589847031C181C95
:1010600003B030BDB25C0000B800000030B583B002
:10107000074C7C441723002A07D085791C23002DB8
:1010800003D0044BE3589847031C181C03B030BD31
:10109000865C0000D00000000368002902D001290E
:1010A00005D008E004221A760023838503E002229B
:1010B0001A760023C3857047F0B583B0664B7B4436
:1010C000664A9A58800085582C68E369002BFCD149
:1010D000237EA67D1E403123EB5C3022AF5C1F4097
:1010E000F10720D5EB8D9BB2002B1AD0AB6A1A7892
:1010F000D2B2591CA9626979012904D1597809022F
:101100000A430233AB62D305DB0D2385EB8D013B34
:101110009BB2EB85002B06D1012323750223A37517
:1011200001E001232375B20709D5022323750022AC
:101130003323EA54FB0702D5281CE9688847720765
:101140006AD5AB8D9BB2002B64D0638BDBB21907E1
:1011500002D43F22134001E037221340002B37D046
:101160009A0707D51A223223EA54628B02231343CB
:10117000638327E0590707D51E223223EA54628B86
:101180000423134363831DE0DA0707D513223223B8
:10119000EA54628B01231343638313E0D90607D516
:1011A00042223223EA54628B10231343638309E003
:1011B00020221A4206D041223223EA54628B202395
:1011C000134363837A0727D5281C6B69984723E06C
:1011D000228DD205D20DD3B2696A0B706B6A591C8D
:1011E00069626979012904D1120A5A706B6A013364
:1011F0006B62AB8D013B9BB2AB85002B0CD1042302
:10120000237500223223EA54BA0705D5281C2B691E
:10121000984701E004232375F10607D510232375B1
:101220002376FA0602D5281CEB699847B10607D544
:101230002023237523763A0702D5281CAB699847EB
:10124000310707D5082323752376BA0602D52B6A02
:10125000281C984703B0F0BD3A5C0000080100006C
:1012600010B582B0011C164C7C44002805D11548ED
:101270007844154BE358984720E0144BE3581B681B
:10128000002B05D1124878440F4BE358984715E0DE
:1012900000221A630F4AA2581268002A0ED10D4A82
:1012A000A25810600C4A981850220C4BE3589847EB
:1012B000064BE3581A680121094BD15002B010BD0A
:1012C000905A0000BC4A00001001000024000000F9
:1012D000CE4A000054020000DC0700004C01000070
:1012E000D4070000F0B55F4656464D464446F0B47C
:1012F00083B0514D7D44514B1A68514BEB581A60E5
:10130000504BEE58504BEC583460BF235B019B466A
:10131000201C00211A1C4D4BEB58984701218A468E
:1013200061700223A3700323E37070232371712380
:101330009946637172229046A2717327E771F02378
:1013400023720F21494261720E225242A2720D2372
:101350005B42E3723E4BA3810423A3735946216190
:10136000FA239B00A3613B4B63653B4BEB589847CB
:1013700030683A4A3A4BC250C82292008523DB00BB
:10138000C250384B5246C250FE229205FA23DB006F
:10139000C250354AFB23DB00C250344BC0183449DD
:1013A00079445022334BEB58984733683249334ADB
:1013B00099500A21324A99540B21324A99540C21EE
:1013C000314A99540D21314A9954314A4946995428
:1013D000304A41469954304A9F5474212F4A9954B7
:1013E0002F4A0F21494299542E4A0E2149429954BD
:1013F0002D4A0D2149429954F4212C4A99542C4BE1
:10140000EB58984731680B78002B08D10B1C0C3136
:101410001A7801321A7001338B42F9D104E0254861
:101420007844254BEB58984703B03CBC904699460E
:10143000A246AB46F0BDC046045A000018E000E0EA
:101440005802000024000000B40000008C010000DD
:10145000A11A0000F0F0F0F060020000F1F1F1F1EB
:10146000240400002C040000F2F2F2F2DC07000079
:10147000E84900004C010000F3F3F3F32C080000EE
:10148000D4170000D5170000D6170000D7170000AA
:10149000D8170000D9170000DA170000DB1700008A
:1014A000DC170000DD170000DE170000DF1700006A
:1014B000E00100007C4900001001000000B583B08D
:1014C0000D4A7A440D4BD3581B68196B002910D074
:1014D000D9690B48814206D90A4878440A4BD35847
:1014E0009847002006E0880083221201801818180F
:1014F00000E0002003B000BD3658000024000000CA
:10150000E7030000EE4800001001000010B582B0B3
:10151000154B7B44062907D914487844144A9A5835
:101520000192904700201CE0002807D0114A9A58E9
:101530001268541860342479844207D20E487844E3
:101540000B4A9A580192904700200AE053187033D2
:101550001B79013858433C31490052189388C01810
:1015600080B202B010BDC046E6570000D648000069
:101570001001000024000000F248000070B582B0A5
:10158000564C7C44062806D955487844554BE358B8
:1015900098470020A0E0544BE25843009B5A53491F
:1015A00079440B60D21838321278002A0AD14E4A98
:1015B000A258D5183835591C061D76009219D288C4
:1015C000891A2970484AA258D11838310978051C5F
:1015D0000C356D00521992889A4207D2444BE35859
:1015E0009847404BE3589847002075E001339BB281
:1015F0003D4AA2584500AB52051D6D005519ED88B6
:101600005B1B051C14356D0052195288934207DD8F
:10161000354AA25801922A1CDBB2019DAA185380B8
:10162000062858D804F01CF904111F2D573B490017
:10163000CA08304BE35807240C400120A040041C8A
:10164000985CA0439854081C46E0081C0B30C2105C
:10165000284BE3580724204001248440985CA04391
:101660009854081C38E0081C1630C210214BE3586F
:101670000724204001248440985CA0439854081C0F
:101680002AE0081C2130C2101A4BE35807242040DE
:1016900001248440985CA0439854081C1CE0081C5A
:1016A0003130C210134BE3580724204001248440FA
:1016B000985CA0439854081C0EE0081C3430C210FB
:1016C0000C4BE3580724204001248440985CA0433D
:1016D0009854081C00E0081C02B070BD765700004A
:1016E000E64800001001000088020000F0EEFF1F35
:1016F0002C0000001401000070B582B01C4B7B442C
:10170000062806D91B4878441B4A9A5801929047EC
:101710002BE0002907D0194A9A5812681218603233
:1017200012798A4206D216487844134A9A5801928E
:1017300090471AE0134A9A584400A45A651E061DA1
:1017400076009219D288954206DA0F4878440A4A00
:101750009A580192904708E0013CA4B2094A9B586C
:101760004000C4521C193834217002B070BDC0460C
:10177000FA550000AE4700001001000024000000F0
:10178000D047000088020000EC47000070B582B02E
:10179000051C161C214C7C44002A05D120487844A5
:1017A000204BE358984737E0062805D91E4878446F
:1017B0001C4BE35898472FE0002905D11B4878447B
:1017C000184BE358984727E0194BE3581B681B1840
:1017D00060331B798B4206D2164BE3589847114B66
:1017E000E358984718E0081C291C134BE358984706
:1017F000124B7B449880124BE3581B68002B0BD193
:101800000B4BE3581B6818188C305B1968331A7936
:10181000311C0C4BE358984702B070BD6255000074
:10182000CA47000010010000EA4700000648000017
:10183000240000002C0000003C0200009EECFF1F72
:10184000540200004C010000F0B5474680B482B05D
:10185000304979448846002804D0061C002400281A
:1018600006D152E02C4878442C4BCB5898474CE09A
:101870002B4BCF583B68D86921188D005A1983200B
:10188000000112181278101C6730C0B20E2811D84F
:101890006832D2B251189869814233D20132920033
:1018A000832109016D18581900211E4B4546EB583C
:1018B000984727E0012A25D10131986981420DD24C
:1018C000832109016D185B1900221A705A709A70F1
:1018D000DA701A715A719A71DA7113E08322120167
:1018E0009B1800221A705A709A70DA700C4B40469E
:1018F000C358832109016D181B685D192A706A702D
:10190000AA70EA700134B442B4D302B004BC904669
:10191000F0BDC046A65400008A4700001001000038
:10192000240000008C01000000B583B00D4A7A4409
:101930000D4BD3581B68196B002910D05969013120
:101940005961D9690131D9610848814203D901211E
:1019500019620021D9610120054BD358984703B083
:1019600000BDC046CA53000024000000E703000089
:10197000F4010000F0B5474680B484B0051C414C2A
:101980007C4400230393FF2809D03F4B984206D0A4
:101990003E4878443E4BE358984700206DE03D4B6D
:1019A000E3581B68586A00280ED13B4AA2583B49AD
:1019B00009681268914207D0394A11680131FA2248
:1019C00092004A4352085A6203A8364BE35898479C
:1019D000039B354A7A4491685E1A93602D4AA25857
:1019E00017687A6A9046002A22D0964210D92F4B67
:1019F000E358301C111C9847F96A0818F8622C4B00
:101A0000E358301C41469847BA6A5118B96202E05F
:101A1000B86A8319BB621F4BE3581B68996A5A6AFC
:101A2000914206D3D86A0130D8628A1A9A6200E0DD
:101A3000BB62AE421FD91F4BE358984700281AD00B
:101A4000114B9D4206D1A9230370330C4380002320
:101A500043700DE0FF2D06D1A8230370330A4380A5
:101A6000330E437004E014487844094BE358984718
:101A7000124BE3589847301C284004B004BC9046F1
:101A8000F0BDC04678530000FFFF0000B6460000DE
:101A900010010000240000005802000018E000E0DF
:101AA00014E000E04C000000BCEAFF1F9C010000B5
:101AB0002C020000DC000000204600001C02000098
:101AC000F0B55F4656464D464446F0B483B0834673
:101AD0009246314878448146304A82581668EA2254
:101AE0009200891849008C5B5846002807D12C4881
:101AF00078442C4B4A46D3589847002044E050463F
:101B0000002802D0201E3FD007E027487844254B0C
:101B10004A46D3589847002036E0180A8046FF27E7
:101B20001F40251C3319214A9B181B78BB421AD130
:101B300033191F481B181B78434514D1201D331837
:101B400053448622D2009B181B78002B0BD180189F
:101B5000301859465246174B9C464B4663441B6807
:101B6000984700280DD0751913482B181C782402AB
:101B70008622D200AD182B781C19A4B2002CD0D12B
:101B800001E0201C00E0201C03B03CBC90469946BC
:101B9000A246AB46F0BDC04624520000240000001F
:101BA000BC45000010010000DC45000032040000CC
:101BB000330400004001000031040000F0B55F462E
:101BC00056464D464446F0B483B0061C151C314CB5
:101BD0007C44002806D130487844304BE35898477D
:101BE000002050E0002A06D12D4878442B4BE358C2
:101BF0009847002047E02B4AA25812682A481758F5
:101C0000BA4604208346D344A946D944274881458F
:101C100006D927487844214BE3589847002032E002
:101C2000EA27BF00C91949008846885A81465146AB
:101C300050188627FF00494639541E4F4946090A65
:101C400039541D4F3B541D4940181B0A037086230D
:101C5000DB001F1C5F44D019311C2A1C184BE358B1
:101C60009847104BE3581B680F4A995868181C187E
:101C7000144EA419002626704746F9520530985094
:101C8000401B053880B203B03CBC90469946A24642
:101C9000AB46F0BD2851000048450000100100008F
:101CA00072450000240000002C0400001F03000007
:101CB00080450000310400003204000033040000BD
:101CC0004C0100003404000030B583B0184B7B4455
:101CD000002806D117487844174A9A58019290472D
:101CE00024E0002906D115487844134A9A580192F5
:101CF00090471BE0002A06D1114878440E4A9A58B2
:101D00000192904712E00478002C09D000250123AD
:101D10002D190133C418013C2478002CF8D101E0BE
:101D2000002501233F2005400D70137003B030BD26
:101D30002A500000FE440000100100002045000071
:101D40003E450000F0B54F464646C0B485B0051C80
:101D50008846224C7C4400226B46DA736B469A73A9
:101D6000002806D11E4878441E4BE35898470020AF
:101D70002EE06F460E37391C6E460F36321C1A4B5A
:101D8000E3589847194BE35898478146184BE35856
:101D90001A6801321A6039783278281C4346154E89
:101DA000A659B047061E09D16B46997B6B46DA7B74
:101DB000281C4346104D6559A847061C0C4BE35898
:101DC0001A68013A1A6048460C4BE3589847301C91
:101DD00005B00CBC90469946F0BDC046A44F00002B
:101DE00006450000100100006001000048020000EC
:101DF00090020000DC010000EC0100002401000062
:101E000070B51F4B7B441F4A9A581268012A06D1AD
:101E1000002834D01C4A9B581B6803602FE01B4AE3
:101E2000146801341A4A1168611A1A4A7A4415680A
:101E3000194A9A581268D643EE4202D5954207D104
:101E4000151C164A7A445268914292415242AA188D
:101E5000002810D06408251C554305600B4C2468ED
:101E60000134012634405443641864086419046042
:101E700005481B581C600A4B7B441A60596070BDB2
:101E8000F44E0000E00000009000000014E000E0CC
:101E900018E000E018E7FF1F0002000000E7FF1F46
:101EA000CCE6FF1FF0B583B0051C2A4C7C4400280B
:101EB0004ED0294B7B441B68002B49D00F2805D9F5
:101EC00026487844264BE358984741E0254BE35891
:101ED0001B68002B05D024487844214BE3589847D1
:101EE00036E0224BE3589847061C1E4BE3581A680D
:101EF00001321A601E4BE3581B681B6B002B1ED06F
:101F00002B1C21331B4AA2580192DA1001998A5CDA
:101F100007210B401A41131CDA0710D41648174B3F
:101F2000E3589847071C164BE3589847002806D0FB
:101F30000222027047804570124BE3589847094BC4
:101F4000E3581A68013A1A60301C0F4BE35898475F
:101F500003B0F0BD4C4E000048E1FF1FDA43000023
:101F6000100100009002000004440000480200003C
:101F70002400000014010000FFFF000068010000C1
:101F8000DC0000001C020000240100007047C04675
:101F90007047C0467047C046F0B583B0071C0D1CA3
:101FA000194C7C44062905D918487844184BE35845
:101FB000984726E0174BE3581E68731860331B7967
:101FC000834205D214487844114BE358984718E0EF
:101FD000336B002B15D0114BE358984730188C30D9
:101FE00000210F4BE3589847061C0E4BE3589847C7
:101FF000002806D008350570477046800A4BE35824
:10200000984703B0F0BDC046564D0000A243000003
:102010001001000024000000D64300003C02000034
:10202000E4000000DC0000001C020000F0B583B0FA
:10203000061C0D1C244C7C44062905D923487844F1
:10204000234BE35898473DE0224BE3581B685A184E
:1020500060321279824205D21F4878441C4BE35803
:1020600098472FE01B6B002B2CD01C4BE358984754
:10207000071E27D0032D10D1301C0321184BE35825
:102080009847144BE25813685A19683212791B1892
:102090009B1889331B797B700FE0301C291C104B77
:1020A000E35898470B4BE25813685A196832127973
:1020B0001B189B1888331B797B7010353D70094BBA
:1020C000E358984703B0F0BDC24C0000AA4300009B
:1020D0001001000024000000E6430000DC000000C6
:1020E0003C0200001C02000070B582B0051C161CEA
:1020F000144C7C44062805D913487844134BE35804
:1021000098471CE0124BE3581B681B1860331B797F
:102110008B4205D20F4878440C4BE35898470EE0A9
:10212000081C291C0C4BE3589847094BE2581368CC
:102130005D1968352A791B189B1889331E7102B006
:1021400070BDC046064C0000964300001001000020
:1021500024000000C24300003C02000030B583B000
:10216000051C154C7C44062806D914487844144BA9
:10217000E358984700201DE0124BE3581B681B18DA
:1021800060331B798B4206D20F4878440C4BE358DE
:10219000984700200EE0081C291C0C4BE358984778
:1021A000084BE25813685D1968352A791B189B188B
:1021B0008933187903B030BD944B0000AC43000064
:1021C0001001000024000000D64300003C02000083
:1021D00070B582B0051C161C144C7C44062805D929
:1021E00013487844134BE35898471CE0124BE358CC
:1021F0001B681B1860331B798B4205D20F4878444B
:102200000C4BE35898470EE0081C291C0C4BE35874
:102210009847094BE25813685D1968352A791B18ED
:102220009B1888331E7102B070BDC0461E4B000063
:10223000BE4300001001000024000000E64300003F
:102240003C02000030B583B0051C154C7C440628C8
:1022500006D914487844144BE358984700201DE0F1
:10226000124BE3581B681B1860331B798B4206D254
:102270000F4878440C4BE358984700200EE0081CA8
:10228000291C0C4BE3589847084BE25813685D191A
:1022900068352A791B189B188833187903B030BD2C
:1022A000AC4A0000CC4300001001000024000000F4
:1022B000F24300003C020000F0B583B0051C344C32
:1022C0007C440F2805D933487844334BE35898476A
:1022D0005CE0031C2133314AA2580192DA100199C3
:1022E0008A5C07210B401A41131CDA0707D52C4BD7
:1022F000E3580193012301990B70012106E0284B5B
:10230000E35801930023019A13700021254BE358F1
:102310001A6801321A60244BE35801931B78AB42D0
:102320002FD0224BE3581B681B6B002B29D00029B0
:1023300027D11F481F4BE3589847071C1A4BE358F7
:102340001D701D4BE3589847061E1AD0164BE358D4
:1023500019780320194BE3589847012802D1072325
:10236000337001E006233370778075700E4BE358AD
:10237000197803200122124BE3589847114BE35878
:102380009847084BE3581A68013A1A6003B0F0BD49
:10239000384A0000D843000010010000140100007A
:1023A0000802000090020000280000002400000045
:1023B000FFFF000068010000DC0000004401000095
:1023C000740200001C02000010B582B00F4C7C4467
:1023D0000F4BE3581A686723D35C834205D20D483C
:1023E00078440D4BE35898470DE003210B4BE3581D
:1023F0009847074BE25813686F229A5C1B189B188A
:10240000883300221A7102B010BDC0462A4900006C
:102410002400000004430000100100003C02000002
:1024200000B583B0044B7B44044A9A58019290470C
:10243000C0B203B000BDC046D24800008C0000000E
:1024400000B583B0034B7B44034A9A5801929047EE
:1024500003B000BDB2480000A401000000B583B085
:10246000044B7B44044A9A5801929047C0B203B08F
:1024700000BDC046964800008801000000B583B04A
:10248000034B7B44034A9A580192904703B000BD26
:1024900076480000B401000010B5294B7B44294A5E
:1024A0009B581B680722DA650A2264215A54652169
:1024B0005A5466215A540F2267215A540520682124
:1024C00058540221692019546A2019546C215A5415
:1024D0006D215A546E215A546F215A5470215A5406
:1024E00071215A5472215A54102274215A54752160
:1024F0005A5476215A5413217720195411247820E4
:102500001C5479201A547A22995400217C22995221
:10251000A0217E229952490080229952F02149003F
:102520008222995208498422995208498622995256
:10253000074988229952E62292001A6610BDC046C9
:102540005C48000024000000FD020000520300006F
:1025500072030000134B7B44134A9B580022DA811C
:102560001A800A221A825A8014225A829A801E22C3
:102570009A82DA802D22DA821A8132221A835A81D3
:1025800034225A839A8109229A831322DA831D22E4
:102590001A842C225A8431229A843322DA843522F6
:1025A0001A857047A24700008802000000B506287F
:1025B00017D803F055F90D070A04191013000C4839
:1025C000784413E00B48784410E00B4878440DE061
:1025D0000A4878440AE00A48784407E00948784401
:1025E00004E00948784401E00848784400BDC0464A
:1025F0006C410000D6410000144200004A42000035
:1026000080420000B6420000F44200007A4100001F
:1026100000B583B0034B7B44034A9A58019290471C
:1026200003B000BDE24600000C010000F0B583B02D
:10263000274C7C44274BE3581B68002B06D12648C7
:102640007844264BE358984700203EE0244BE3585B
:102650001B68002B35D1234BE3589847061C224BAF
:10266000E3581A6801321A601A4BE3581B680122BA
:102670001A631E4BE35898471D4BE3589847051EB5
:1026800012D103201B4BE3589847071C051C03205D
:10269000391C194A7A44194BE35898470320391CCE
:1026A0000022174BE3589847281C164BE3589847CD
:1026B0000D4BE3581A68013A1A60301C124BE3586C
:1026C0009847044BE3581B68186B03B0F0BDC04635
:1026D000C646000024000000DC430000100100009A
:1026E00054020000480200009002000004000000B4
:1026F000780000008C020000D44300003401000088
:10270000440200004400000024010000031C0833C0
:102710004360012252428260C36003610023036070
:102720007047C046002303617047C04643684B6052
:102730009A688A609A6851609960086103680133F9
:102740000360704730B50C68021C0832631C01D16D
:10275000026905E053681D68AC4201D31A1CF9E711
:1027600053684B6099608A60516008610368013367
:10277000036030BD03694268816891608268416886
:1027800051605A68824201D192685A600022026107
:102790001868013818607047044B7B441B6801338C
:1027A00001D072B6FEE772B6FEE7C0466ED8FF1FD4
:1027B000064A13681868203080F30988022080F3E5
:1027C00014883FBCAE4662B600BDC0461C12002055
:1027D00010B5031F802464041C60043B1960043B93
:1027E000034979441960143B1A60403810BDC04653
:1027F000B3FFFFFF7047C04680225205034B1A60AB
:10280000BFF34F8FBFF36F8F7047C04604ED00E0FA
:1028100072B6054B7B441A6801321A60BFF34F8FC2
:10282000BFF36F8F7047C046F4D7FF1F074B7B4441
:102830001B68002B01D172B6FEE7013B044A7A44C3
:102840001360002B00D162B67047C046DAD7FF1F75
:10285000CAD7FF1FEFF3108072B670470020C04642
:1028600080F310887047C046EFF309800E4B1A685A
:1028700020381060F0C044464D4656465F46F0C0D2
:1028800008B572B601F020FC62B60CBC116808688D
:102890001030F0C8A046A946B246BB4680F309886E
:1028A0002038F0C81847C0461C12002030B583B04D
:1028B0000A4C7C440A4BE3589847051C094BE358E3
:1028C0009847002803D080225205074B1A60281C25
:1028D000064BE358984703B030BDC046464400005D
:1028E000480200002002000004ED00E02401000086
:1028F0000022044B1A60044A044B1A600722044B5E
:102900001A60704718E000E07FBB000014E000E0B0
:1029100010E000E000B583B00C4A7A440C4B186814
:10292000FF210904014319601868FF2109060143CA
:102930001960084BD35898470022074B7B441A6014
:10294000064B7B449847064B7B449847DE43000088
:1029500020ED00E070000000CCD6FF1F6BFEFFFFF3
:102960004DFEFFFF70B582B0051C184C7C44430738
:1029700002D007239D430835154BE3589847154B64
:102980007B441B68002B06D1134B7B441A1C0C3272
:1029900007218A431A60114B7B44DB6BED18104A08
:1029A000954209D8AB4209D20E4A7A441668F61805
:1029B0000D4B7B44DD6302E0002600E000260B4B5C
:1029C000E3589847301C02B070BDC0468C430000ED
:1029D00028010000E0DBFF1FD6DBFF1F48E7FF1FD9
:1029E000AF0B0000B6DBFF1F2EE7FF1FD801000072
:1029F000002801D072B6FEE77047C04670B582B0BD
:102A0000041C161C1E4B7B44026C002A09D1006872
:102A100000282FD160681B4A9A58904700236360B2
:102A200028E0002E0ED18068174D5D590195A8470A
:102A3000A168226C8B18A360606883421AD3216856
:102A4000A16017E0C068104D5D590195A847236C3F
:102A50005A42E0688318E36021688B4202D26368BF
:102A60009A18E260022E05D1A36B002B02D0A36B53
:102A7000013BA363A36B0133A36302B070BDC046E7
:102A8000F2420000380100005C000000F0B55F4633
:102A900056464D46E0B484B0039089462D4D7D44A2
:102AA000446D002C01D172B6FEE7A26BE36B9A4233
:102AB00001D372B6FEE7A26B0020934243D9201CDB
:102AC000254BEE58B047254BEB5800931B5C203349
:102AD000DBB29B46201CB047009A175C201C204BA1
:102AE000EB5801939847021C5846391C1D4BEB5874
:102AF0009847201CB047009B185C8246201C019A16
:102B00009047071C201CB047009A135C022B03D08F
:102B1000A36B0133DAB200E000225046391C124B9D
:102B2000EB589847201C03A94A46104B7B44984712
:102B30000020636A002B06D0201C24300C4BEB587D
:102B40009847431E984104B01CBC91469A46A34640
:102B5000F0BDC0465A42000080010000780200002B
:102B6000640000002802000074020000CDFEFFFF98
:102B70000401000070B582B00A4B7B440568002D4B
:102B80000DD0026CC668B418C4604668B44200D365
:102B9000C560C468081C211C034C1C59A04702B026
:102BA00070BDC0467E4100005C000000F0B583B0FF
:102BB000041C2B4D7D442B4BEB589847A36C002BEA
:102BC00021DD271C2437284E7E44636D002B08D05E
:102BD000201C0021B04701280FD1244BEB58984707
:102BE0000BE0636A002B0ED0381C214BEB58984742
:102BF000002802D01D4BEB589847A36C013BA364FF
:102C0000A36C002BE1DC01235B42A364194BEB585E
:102C10009847144BEB589847636C002B17DD2369DA
:102C2000002B14D0271C1037114BEE5802E02369FB
:102C3000002B0CD0381CB047002802D00B4BEB58AF
:102C40009847636C013B6364636C002BEFDC0123EA
:102C50005B426364074BEB58984703B0F0BDC04636
:102C60004441000084020000C1FEFFFF1402000086
:102C7000040100001000000070B582B0041C0E1C9E
:102C80001B4D7D44002801D172B6FEE7194BEB586D
:102C900098472368226CE06B50431918616000214B
:102CA000A163A360821A9B18E36001235B42636403
:102CB000A364002E0DD12169002912D0201C1030F0
:102CC0000D4BEB58984701280BD10C4BEB5898470C
:102CD00007E0201C10300A4BEE58B047201C24306F
:102CE000B047084BEB589847012002B070BDC04672
:102CF000764000008402000004010000780100001A
:102D0000E800000010000000F0B557464E4645466A
:102D1000E0B482B0051C8846161C324F7F44002860
:102D20001ED05820304BFB589847041E18D0404600
:102D3000684301302C4BFB5898472060002811D184
:102D40002A4BFB58995D081C4030C0B20022284B2A
:102D5000FB589847201C274BFB58984700E0FEE79C
:102D600072B6FCE7E56343462364201C0121224B35
:102D7000FB5898475023E65400236365201C1F4BE3
:102D8000FE58B047194BFD58285C1D4BFB5898471F
:102D9000E064201CB0472B5C1833DBB29A46201C41
:102DA000B047285C8146201C164BFB58009398477F
:102DB000021C504649460E4BFB589847201CB04712
:102DC0002D5C201C009B9847011C281C00220E4BE8
:102DD000FB589847201C02B01CBC90469946A2465E
:102DE000F0BDC046DC3F0000D400000078020000C7
:102DF0002802000080000000340200008001000072
:102E00008C0200006400000074020000F0B55F4610
:102E100056464D464446F0B489B0051C8846059296
:102E20001E1C9C4C7C44002801D172B6FEE7002990
:102E300004D1036C002B01D072B6FEE7022E04D140
:102E4000EA6B012A01D072B6FEE7934BE35898472C
:102E5000002802D1059B002B07D1002292468F4B00
:102E6000E358029306AB994601E072B6FEE7029A78
:102E70009047AB6BEA6B934201D3022E5CD1281CC6
:102E8000874BE35801939847864BE35802931B5CAA
:102E90002033DBB29A46281C019B9847029A175CA4
:102EA000281C814BE35803939847021C5046391C59
:102EB0007E4BE3589847281C019B9847029A105C68
:102EC0008146281C039B9847071C281C019A9047A1
:102ED000029A135C022B03D0AA6B0132D2B200E03B
:102EE00000224846391C724BE3589847281C41463B
:102EF000321C704B7B4498476B6D002B0AD0281C0A
:102F0000311C6D4B7B449847012810D16B4BE35823
:102F100098470CE06A6A002A09D0281C2430684BC4
:102F2000E3589847012802D1644BE3589847654B12
:102F3000E35898470120A5E0059B002B1CD1614B6D
:102F4000E3589847281C564BE35801939847554B34
:102F5000E658335C4833DFB2281C019A9047365C50
:102F6000281C514BE3589847021C381C311C4F4B0E
:102F7000E3589847002085E05346002B05D148468A
:102F8000514BE3589847012292464E4BE3589847DD
:102F90004E4BE3589847414BE35898476B6C0133CD
:102FA00001D100236B64AB6C013301D10023AB640E
:102FB000444BE3589847484605A9454BE358984782
:102FC00000283FD1354BE3589847AB6B9B46EF6BDE
:102FD0003C4BE3589847BB452CD1281C304BE35859
:102FE000019398472F4BE7583B5C7033DBB29B460D
:102FF000281C019A90473F5C281C2B4BE3589847AC
:10300000021C5846391C294BE3589847281C10309D
:103010000599304BE3589847281C2F4B7B44984721
:103020002E4BE3589847002800D020E7234BE35865
:1030300098471CE7281C2A4B7B449847274BE358AA
:10304000984714E7281C274B7B449847234BE358A9
:103050009847281C124BE35801939847114BE658A8
:10306000335C4833DFB2281C019B9847365C281C30
:103070000D4BE3589847021C381C311C0B4BE3588E
:103080009847002009B03CBC90469946A246AB4602
:10309000F0BDC046D43E0000500200008402000093
:1030A0008001000078020000640000002802000097
:1030B0007402000005FBFFFF85FBFFFF78010000A5
:1030C0000401000010000000800200002801000040
:1030D00020010000600000008DFBFFFFD801000010
:1030E00071FBFFFF61FBFFFFF0B55F4656464D46A3
:1030F0004446F0B485B0041C0F1C161C9846564D6F
:103100007D44002801D172B6FEE7002904D1026C8B
:10311000002A01D072B6FEE74346022B00D07FE0C2
:10312000E26B012A00D184E072B6FEE7201C4B4B13
:10313000EB58009398474A4BEB5801931B5C303394
:10314000DBB29B46201C009B9847019A105C82468C
:10315000201C444BEB5802939847021C584651469A
:10316000414BEB589847201C009B9847019A105CF4
:103170008346201C029B9847011CA26B0132D2B2ED
:1031800058463A4BEB589847201C391C4246384B5E
:103190007B449847A36C01331FD1626D002A0CD089
:1031A000201C4146334B7B4498470127012846D1D8
:1031B000002E31D00123336041E00127636A002BE8
:1031C0003DD0201C24302C4BEB589847002836D09B
:1031D000002E23D00123336031E0A36C0133A364BC
:1031E00001272CE0201C1D4BEB58009398471C4BEB
:1031F000EE58335C5833DFB2201C009A9047365C9F
:10320000201C184BEB589847021C381C311C164BDD
:10321000EB589847002712E0012710E001270EE045
:10322000164BEB5898478146A36BE26B9342D9D279
:103230007CE7124BEB5898478146A36B76E74846EC
:103240000F4BEB589847381C05B03CBC904699464C
:10325000A246AB46F0BDC046F83B0000800100002E
:1032600078020000640000002802000074020000E0
:1032700069F8FFFFE3F8FFFF0401000048020000C7
:1032800024010000F0B55F4656464D464446F0B472
:1032900089B0051C0F1C05920393BA4C7C4400288E
:1032A00001D172B6FEE7002904D1026C002A01D0D8
:1032B00072B6FEE7B44BE3589847002802D1059B4D
:1032C000002B07D100229146B04BE358049306AB84
:1032D000984601E072B6FEE7049A9047AB6B002B6C
:1032E00000D186E0EB689846281C391CA84B7B442B
:1032F0009847039A002A50D1281CA64BE658B0479D
:10330000A54BE35801931B5C2833DBB29946281C7C
:10331000B047019B1F5C281CA04BE35803939847C0
:10332000021C4846391C9E4BE3589847281CB0475E
:10333000019A105C8046281C039B9847071C281C98
:10334000B047019A135C022B07D1964BE35898477C
:10335000954BE3589847021C02E0AA6B013AD2B29F
:103360004046391C914BE3589847AB6B013BAB632C
:103370002B68002B03D18E4BE358984768602A696D
:10338000002A31D0281C10308A4BE3589847012876
:103390002AD1894BE358984726E0281C7D4BE358F7
:1033A000019398477C4BE658335C7833DFB2281C96
:1033B000019B9847365C281C784BE3589847021CC1
:1033C000381C311C764BE35898474246EA606B6ADA
:1033D000002B09D0281C2430764BE358984700284E
:1033E00002D0754BE3589847744BE3589847012037
:1033F000C0E0059A002A1CD1704BE3589847281C5E
:10340000644BE35801939847634BE658335C503361
:10341000DFB2281C019B9847365C281C5F4BE358A1
:103420009847021C381C311C5D4BE358984700201C
:10343000A0E04A46002A05D14046614BE358984730
:10344000012399465D4BE35898475E4BE3589847F4
:103450004E4BE35898476B6C013301D100236B64EA
:10346000AB6C013301D10023AB64544BE358984754
:10347000404605A9544BE358984700285AD1434B7E
:10348000E3589847AE6B4D4BE3589847002E49D10F
:10349000281C404BE358019398473F4BE658335C58
:1034A0006833DBB29B46281C019A9047305C824609
:1034B000281C3A4BE3589847021C58465146384B53
:1034C000E3589847281C019B9847335C022B08D08F
:1034D000344BE3589847344BE35898473B4BE358F9
:1034E00098472A68002A09D1284BE358984768680A
:1034F000374BE3589847314BE3589847281C243002
:103500000599344BE3589847281C334B7B44984724
:10351000324BE3589847002800D0DDE6264BE358AD
:103520009847D9E6281C2E4B7B4498472B4BE358F1
:103530009847D1E6281C2B4B7B449847274BE358F0
:103540009847281C134BE35801939847124BE658B1
:10355000335C5033DFB2281C019B9847365C281C33
:103560000E4BE3589847021C381C311C0C4BE35897
:103570009847002009B03CBC90469946A246AB460D
:10358000F0BDC0465C3A000050020000840200001A
:1035900083F8FFFF80010000780200006400000053
:1035A00028020000040000007800000074020000FF
:1035B000B4010000040100007801000010000000C8
:1035C0008002000028010000200100000402000029
:1035D00048010000600000009DF6FFFFD8010000D8
:1035E00081F6FFFF71F6FFFFC06C70475023C05C8F
:1035F0007047C04670B582B0041C0E1C104D7D444F
:10360000104BEB589847636C013301D1002363647E
:10361000A36C013301D10023A3640B4BEB589847F3
:10362000A36B002B05D1201C2430311C074BEB5819
:103630009847201C064B7B44984702B070BDC0469B
:10364000FA3600008402000010000000580100005B
:1036500073F5FFFF002801D172B6FEE70023084A88
:103660007A444169914209D1836A064A7A44143204
:10367000934202D05A42534100E00023181C704785
:10368000C0DAFF1FB4DAFF1F0A4B7B449B6A1B683A
:10369000002B05D101225242074B7B441A6008E0FF
:1036A000064B7B449B6ADB68DB685A68044B7B44AF
:1036B0001A60704796DAFF1F72C9FF1F7EDAFF1F7C
:1036C0005EC9FF1F10B582B0041C164B7B44164A1E
:1036D0009A5812685060154A7A44D26A90420BD2C6
:1036E000134A7A44106B104A9A5811680431114AEF
:1036F0009A580192904712E00F4A7A44906A0A4A17
:103700009A58116804310B4A9A58019290470B4B12
:103710007B441B689C4202D2094B7B441C6002B074
:1037200010BDC0462C3600004800000048DAFF1FDC
:103730003EDAFF1F9801000026DAFF1FFCC8FF1FBA
:10374000F2C8FF1FF0B55F4656464D464446F0B4FA
:1037500085B081460F1C161C9A468E4D7D4400286C
:1037600001D172B6FEE70E9A042A01D972B6FEE7BD
:103770004820894BEB589847041E00D1C8E0109BA5
:10378000002B00D0C0E0B000834BEB58984720637B
:10379000002804D1201C814BEB589847B8E0B200B8
:1037A000A5217F4BEB5898477E4AB3189B00226BAC
:1037B000D318072293439B463A783423E2543B784C
:1037C000002B0AD00123F95CE21834321170FA5C44
:1037D000002A02D00133052BF5D100223823E25410
:1037E0000E9E042E00D90426E6626664231D9846C8
:1037F000181C6D4BEF58B847201C1830B84724618F
:1038000005239E1BA6616462584649465246674B93
:10381000EB58984720600F9A002A00D01460644B40
:10382000EB589847634B7B445A6B01325A63624BA7
:10383000EB581B68002B34D15F4BEB581C605F4B7F
:103840007B445B6B012B6CD15D4B7B441E1C38367B
:103850001F1C9C375B4BEB580193301C019B984716
:103860001436BE42F9D1584A7A4491461C239B46ED
:10387000CB445846534BEE58B04730229246CA4488
:103880005046B047514F7F44381C1430B04748462B
:103890004430B047381CB0475B46BB6252463A637F
:1038A0003FE04B4B7B449B6D002B3AD1424BEB5896
:1038B0001B68DB6A0E9A9A4233D33F4BEB581C606D
:1038C0002FE0444A7A44D3659A00D3189B004248BB
:1038D00078443830C0184146404BEB589847404B2D
:1038E000EB5898473F4B7B449B6D0120002B49D000
:1038F000314BEB581B68DB6A0E9A9A4242D93A4B1D
:10390000EB58984701203DE0109B0363181C46E7E5
:10391000432003210022354BEB58984701204042B9
:1039200030E0334F7F443B6E01333B66E36303205B
:10393000304BEB5898472064201C2F4BEE58B04773
:10394000011C221C343203202C4BEB589847201CBE
:10395000B047011CE36ADAB20320294BEB589847C1
:10396000201CB047021C1B200321204BEB5898471A
:10397000201CB047234BEB589847E36AFA6D9342FB
:103980009FD8A1E705B03CBC90469946A246AB46FD
:10399000F0BDC0469C350000D4000000800000004F
:1039A0008C010000FFFFFF3FAC0000006C02000034
:1039B00084020000FAD8FF1F48000000E0D8FF1F73
:1039C000D6D8FF1FE800000038D9FF1F9AD8FF1F84
:1039D000FCD8FF1FDCD8FF1F50D8FF1F9400000049
:1039E00010000000BAD8FF1F780100002802000074
:1039F0007CD8FF1F8C02000078000000340100001A
:103A000044020000AC010000F0B583B0051C254C59
:103A10007C44002801D172B6FEE7234BE3581B68B3
:103A200098423DD0214BE3589847281C204B7B44BB
:103A30009847012831D1281C1E4BE658B047021C7C
:103A40008B2003211C4BE35898472F1D381C1B4B20
:103A5000E3589847281CB047194BE3589847EB6A3E
:103A6000184A7A44D26D934202D9174A7A44D365F0
:103A70009A00D3189B00154878443830C018391C78
:103A8000134BE3589847084BE3581B68EA6ADB6A14
:103A90009A4202D30F4BE35898470F4BE35898478D
:103AA00003B0F0BDE83200004800000084020000CE
:103AB00023FCFFFF78000000280200003001000016
:103AC000AC0100003ED7FF1F34D7FF1FA8D6FF1F51
:103AD000940000007801000010000000F0B5474697
:103AE00080B482B0051C2D4C7C44002801D172B6F4
:103AF000FEE72B4BE35898478046281C294B7B4414
:103B00009847002601283FD1281C274BE3589847A7
:103B1000021C8C200321254BE3589847244B7B44FF
:103B20009B6E002B27D1234BE3581B68DB6AEA6AA4
:103B30009A4276412F1D381C1F4BE3589847281C8A
:103B4000194BE35898471D4BE3589847EB6A1C4ABA
:103B50007A44D26D934202D91A4A7A44D3659A00C4
:103B6000D3189B00184878443830C018391C174BBC
:103B7000E358984708E0291C183115487844143058
:103B8000124BE358984700264046124BE35898479B
:103B9000301C02B004BC9046F0BDC046103200009C
:103BA0004802000053FBFFFF7800000028020000DD
:103BB00082D6FF1F4800000030010000AC01000069
:103BC00050D6FF1F46D6FF1FBAD5FF1F9400000036
:103BD000A4D5FF1F2401000030B587B0144C7C44ED
:103BE00000230093019302930393124878441249EF
:103BF00079444622114D6559A847012811D1104B2F
:103C0000E358984701280CD172B601220D4B7B4432
:103C10009A6500220C4B7B44DA620C4BE3589847C0
:103C200003E0002801D172B6FEE707B030BDC04600
:103C30001A31000021040000CC30000068000000B0
:103C4000A001000092D5FF1F0AD5FF1F58000000F9
:103C5000024B7B449A6E01329A6670474ED5FF1F25
:103C600030B583B0064C7C44064BE3589847064B6E
:103C70007B44DD6A054BE3589847281C03B030BDF0
:103C80009230000084020000B0D4FF1F100000003A
:103C900030B583B0064C7C44064BE3589847064B3E
:103CA0007B44DD6A054BE3589847281C03B030BDC0
:103CB000623000004802000080D4FF1F2401000091
:103CC000F0B557464E464546E0B482B0584C7C4469
:103CD000584B7B449B6E012B04D0574B7B44DB6ECF
:103CE000002B08D1554BE3581A6801321A600020A6
:103CF000534BE3589847534B7B449A6E9B6E002B73
:103D000000D07FE0504B7B44DA6A0132DA62DF6A2E
:103D1000002F15D14D4B7B449B6A1B68002B01D0B3
:103D200072B6FEE74A4B7B449A6A196B99621A6332
:103D3000484B7B441A6F01321A67474B7B449847C4
:103D4000464B7B441B6800269F424DD3444A7A442D
:103D50009246444B7B443833994600E00126524654
:103D6000936A1B68002B05D1012252423E4B7B44D3
:103D70001A6039E03D4B7B449B6ADB68DD686B6809
:103D80009F4203D23A4A7A4413602DE02B1D984695
:103D9000181C384BE3589847AA6A002A04D0281CFC
:103DA0001830344BE3589847281C334BE358984756
:103DB000324BE3589847EB6A314A7A44D26D9342CA
:103DC00002D9304A7A44D3659800C018800048442C
:103DD00041462D4BE35898472C4BE3581B68EA6A41
:103DE000DB6A9A42BAD2BAE7284BE3581B68DB6A0F
:103DF0009A00D3189B00264A7A44D3189B6B012B58
:103E000007D807E0234B7B44DA6E0132DA660026DE
:103E100000E00126204B7B445B6F002B00D0012685
:103E2000301C02B01CBC90469946A246F0BDC0466C
:103E30002A300000CED4FF1FC4D4FF1F00020000B0
:103E40004C000000A8D4FF1F1AD4FF1F0AD4FF1F84
:103E5000FAD3FF1F6ED4FF1F49F9FFFFCAC2FF1F2D
:103E6000D2D3FF1FCCD3FF1F9EC2FF1FAAD3FF1FB9
:103E700086C2FF1F3001000078000000AC01000086
:103E8000E6D3FF1FDCD3FF1F9400000048000000B2
:103E900028D3FF1F9AD3FF1F8AD3FF1FF0B54F46C9
:103EA00080B482B0424C7C44424B7B449B6E002BDE
:103EB00001D172B6FEE7404BE35898473F4B7B4435
:103EC0009A6E013A9A669B6E0025002B68D13C4B96
:103ED0007B445B6B002B63D03A4A7A4491463A4B61
:103EE0007B441E1C383630E0384B7B441B6ADD684F
:103EF000281C1830364BE358019398472F1D381C67
:103F0000019B9847281C334BE3589847324BE358A2
:103F10009847EB6A314A7A44D26D934202D9304ACB
:103F20007A44D3659800C01880003018391C2D4B96
:103F3000E35898472C4BE3581B68EA6ADB6A9A42BD
:103F400003D30122294B7B445A674A465269002A0F
:103F5000CAD1274B7B44DB6E002B17D0254B7B440B
:103F6000DB6E002B12D0244BE3580193234E7E448A
:103F70000125019B9847002800D07567204B7B44A2
:103F8000DA6E013ADA66DB6E002BF2D11D4B7B4410
:103F90005B6F0025012B03D11B4BE358984701258C
:103FA0001A4BE3589847281C02B004BC9146F0BD58
:103FB000522E0000F6D2FF1F84020000E2D2FF1F43
:103FC00050D2FF1F46D2FF1F40D2FF1F36D2FF1F25
:103FD0003001000078000000AC0100008AD2FF1F11
:103FE00080D2FF1F94000000480000005AD2FF1F3B
:103FF0004CD2FF1F42D2FF1F2002000032D2FF1F0F
:1040000022D2FF1F12D2FF1F780100001000000013
:10401000F0B54F464646C0B483B01E4C7C441E4E9D
:104020007E441E4A7A4490461D4F7F4427E01D4B34
:10403000E35898477D6C1C4BE3589847002D1ED0E1
:104040001A4BE35898471A4D7D442B6DDA68914618
:10405000101C0430174BE3589847174B7B445A6B9E
:10406000013A5A636B6E013B6B66144BE3589847F9
:104070004B46186B124BE558A8474846A847736E45
:10408000002BD4D14246926B012AF8D90D4BE3584C
:104090009847F4E7DC2C000080D1FF1FFCD0FF1F05
:1040A00076D1FF1F28010000D80100008402000023
:1040B00058D1FF1F30010000C4D0FF1F10000000C6
:1040C000800000007801000030B583B02C4C7C44A7
:1040D0002C4B7B449B6E002B04D001222A4B7B444B
:1040E0005A674AE0294B7B4400225A67DB6D9A00ED
:1040F000D3189B00264A7A44D3189B6B002B1BD104
:10410000244B7B44DB6D002B05D102E0C26D002AFD
:1041100007D172B6FEE7204B7B44204D7D442048FA
:104120007844DA6D013ADA65DA6D91008A18920006
:10413000AA18926B002AE9D01A4B7B44DB6D9A00D7
:10414000D3189B00184A7A443832D3185A685268F8
:104150005A60191C08318A4201D152685A605B6862
:10416000DA68124BE3581A60114BE3589847114B29
:10417000E3589847104BE358984703B030BDC0460A
:104180002A2C0000CED0FF1FC2D0FF1FBAD0FF1FC5
:104190002AD0FF1F9ED0FF1F88D0FF1F04D0FF1F13
:1041A00080D0FF1F66D0FF1FDACFFF1F480000003E
:1041B00004000000780000004400000070B582B0E8
:1041C000051C314C7C44314BE3589847002D02D1FB
:1041D0002F4BE3581D68281C2E4BE658B047021C95
:1041E0008A2003212C4BE3589847281CB0472B4BBF
:1041F000E35898472E1D301C294BE3589847AB6A6B
:10420000002B04D0281C1830254BE358984725482C
:104210007844311C244BE3589847244BE358984783
:104220001B4BE3581B689D421ED1214B7B449B6D69
:10423000002B0AD01F4B7B449B6E002B01D072B623
:10424000FEE71D4BE35898471CE01C4B7B445A6B20
:104250001B68934204D10E4BE35800221A6011E010
:10426000174BE35898470DE0164B7B449B6D002B92
:1042700008D0064BE3589847134B7B4498470B4BA9
:10428000E358984702B070BD342B00008402000050
:10429000480000007800000028020000040200002E
:1042A0003001000010CFFF1F94000000100000003C
:1042B00074CFFF1F6ACFFF1F78010000D4CEFF1F0D
:1042C0005401000036CFFF1F0BF4FFFF70B582B022
:1042D0000D1C134C7C44002801D172B6FEE7114B33
:1042E000E65831681831104BE3589847306804306D
:1042F0000E4BE35898476B1C09D10A4BE3581968D9
:1043000004310B4878440B4BE358984706E00A4BBE
:104310007B44D86A2818094B7B44984702B070BD8B
:10432000242A00004800000098010000300100002D
:104330001CCEFF1F9400000010CEFF1FA9F3FFFF4B
:10434000F0B583B00E1C164C7C44002801D172B627
:10435000FEE7144BE55829681831134BE35898478A
:1043600028680430114BE3589847114B7B44DF6AAF
:10437000F7198820391C0F4BE358984728680E4BD3
:10438000E658B0470D4BE558A8470D4BE358984702
:10439000B047A847381C0B4B7B44984703B0F0BD8F
:1043A000B029000048000000940000003001000027
:1043B000B4CDFF1F180000007800000004020000C8
:1043C0000400000029F3FFFF70B582B0244C7C4448
:1043D000C368DD68002D01D172B6FEE72E1C1836C9
:1043E000301C204BE35898471F4B7B449B6E002B9F
:1043F00020D12E1D301C1B4BE3589847281C1B4B0B
:10440000E35898471A4BE3589847EB6A194A7A449D
:10441000D26D934202D9184A7A44D3659A00D318D0
:104420009B00164878443830C018311C144BE358B0
:10443000984706E0134878441430311C104BE35879
:104440009847114BE3581B68EA6ADB6A00209A42DE
:1044500004D901220D4B7B445A67012002B070BD84
:104460002A29000030010000B6CDFF1F78000000AF
:10447000AC01000092CDFF1F88CDFF1FFCCCFF1FB9
:1044800094000000EACCFF1F480000004ACDFF1F47
:10449000002801D172B6FEE7044B7B441B6F03601A
:1044A000034B7B44DB6A43607047C04606CDFF1F69
:1044B0007ECCFF1FF0B583B0041C0F1C184E7E4449
:1044C000002801D172B6FEE7002901D172B6FEE7DD
:1044D000144BF3589847144B7B44DA6A3B68581CDA
:1044E00017D012497944096F2068884203D001250A
:1044F00061688A420ED26168501A0125834209D947
:104500008A1AD3183B60201C094BF35898470025A2
:1045100000E00025074BF3589847281C03B0F0BD76
:104520003A2800008402000048CCFF1FBCCCFF1FCB
:1045300080020000100000000122024B7B445A67F9
:104540007047C04664CCFF1F002801D0006C00E01B
:1045500000207047024B7B44024A9B581868704702
:10456000A227000048000000064B7B449B6D012001
:10457000002B05D0044B7B44986E434258414000C9
:104580007047C04636CCFF1F2ACCFF1FF0B583B062
:10459000051C354C7C44002864D0C36A334AA258B9
:1045A0001268D26A93425DD28269002A06DB2F4AE2
:1045B000A2581268D26A05218A1A82619A00D31819
:1045C0009B002B4A7A443832D3186F699F4225D119
:1045D0002E1D301C274BE3589847244BE3581B688B
:1045E000DB6AEB62281C244BE3589847234BE358C3
:1045F0009847EB6A224A7A44D26D934202D9214A03
:104600007A44D3659800C3189B001F48784438301B
:10461000C018311C1D4BE358984704E0134BE35876
:104620001B68DB6AEB62281C134BE658B047071C7B
:10463000281CB047011C0320154BE3589847031C66
:104640008E2003213A1C134FE759B847281CB04766
:10465000011C064BE3581B68DA6AD2B203200E4BEA
:10466000E358984703B0F0BD6427000048000000FD
:104670005CCBFF1F3001000078000000AC0100009F
:10468000AACBFF1FA0CBFF1F14CBFF1F940000007D
:10469000CC000000CC01000044020000F0B583B063
:1046A000041C284D7D4400284AD0C26A436C9A42BB
:1046B00046D0071D381C244BEB589847201C234B31
:1046C000EB5800939847061C201C009A9047011C49
:1046D00003201F4BEB589847031C8F200321321CEB
:1046E0001C4EAE59B047201C009EB047011C636CA5
:1046F000DAB20320184BEB589847636CE362A66963
:10470000002E02DB0522D31AA361201C0F4BEB58AD
:104710009847124BEB589847E36A114A7A44D26D96
:10472000934202D90F4A7A44D3659800C3189B007C
:104730000D4878443830C018391C0C4BEB5898475A
:1047400003B0F0BD542600003001000078000000E6
:10475000CC000000CC01000044020000AC010000CD
:1047600084CAFF1F7ACAFF1FEEC9FF1F9400000012
:1047700030B583B0041C114D7D44416020619142ED
:104780000DD8D21A0120A3699A4215D20C4B7B4452
:104790001868211D0B4BEB58984700200CE09A42FB
:1047A00002D20120994207D2074B7B445868211D51
:1047B000044BEB589847002003B030BD8025000023
:1047C0008ECAFF1F9801000072CAFF1FF0B583B0A8
:1047D000164C7C44164BE3589847164B7B449B6819
:1047E000002B1DD1144D7D442E1C0C36301C134B58
:1047F000E358019398472F1C2037381C019B98479A
:104800006E602F6002200C2100220D4BE358984768
:10481000002803D00B4B7B44986001E072B6FEE7A2
:10482000094BE358984703B0F0BDC0462625000069
:104830008402000040CAFF1F36CAFF1FE8000000C4
:10484000B801000006CAFF1F1000000030B587B095
:10485000104C7C44104B7B449847104B7B449B6826
:10486000002B13D0022300930D4B7B443433019370
:104870000023029303930B4878440B497944502258
:104880000A4D65590595A847002801D172B6FEE783
:1048900007B030BDA624000073FFFFFFC0C9FF1F93
:1048A000B2C9FF1FF10200004824000068000000A8
:1048B000F0B54F464646C0B483B081460E1C9046C4
:1048C0001F1C204D7D44002933D02C201E4BEB585B
:1048D0009847041E22D01D4B7B4498474B462360CB
:1048E000A6614346E36127620A9B6362201D184B61
:1048F000EB5898470520174BEB589847011CA062CE
:1049000005202268144BEB589847FF22A36A1A40EF
:10491000B0200521114BEB5898470CE000239A6A10
:10492000FF231A40B92005210C4BEB58984702E0B1
:10493000FEE772B6FCE7201C03B00CBC904699461B
:10494000F0BDC04634240000D4000000F1FEFFFF9B
:10495000AC0000008C0200003401000028020000BE
:10496000F0B5474680B486B0071C0C1C9046394D04
:104970007D44394979448868002865D003940492BD
:104980000597052C1ADC354BEB58984702280AD1BD
:10499000334B7B44986803A90C9A0023314EAE59DF
:1049A000B047061C11E0304B7B44986803A90022F5
:1049B00000232C4EAE59B047061C06E003A91A1C72
:1049C00000232A4EAE59B047061C002C3DDD042CB6
:1049D0000CD1BD20012E00D1B420BA6AFF231A40A9
:1049E00005214346224C2C59A0472EE0052C1DD111
:1049F000B524012E1ED1FF22BB6A1A40B520052125
:104A00001C4BEB589847BC6AE0B205211A4BEB5897
:104A10009847BA6AD0B20521184BEB589847B96A43
:104A2000C9B20520164BEB5898470EE0B03400236E
:104A3000012E00D00923E018BA6AFF231A4005218D
:104A40000C4BEB58984700E00026301C06B004BC25
:104A50009046F0BD88230000A8C8FF1F5002000048
:104A60008AC8FF1FF800000074C8FF1F3000000054
:104A7000CC01000028020000740000008400000047
:104A800098000000F0B55F4656464D464446F0B4E7
:104A900085B082462B4E7E442B4BF3589847814677
:104AA0002A4B7B449B6B98423DD2294979448846E6
:104AB00000229346274C7C44039426E0DB681F6861
:104AC000DC68251D281C244BF3589847201C616A7C
:104AD0008847E269012A18D1A1697B18BB4208D92D
:104AE00063602461039C6068291C1C4BF358984741
:104AF0000BE059460091201C3A1C5B46184C345977
:104B0000A047002801D172B6FEE7424653681C68F0
:104B1000002CD3D1134A7A441168516013600123E9
:104B20005246136002E00023544623600E4B7B4440
:104B300049469963484605B03CBC90469946A24612
:104B4000AB46F0BD62220000F40000007AC7FF1FF0
:104B500070C7FF1F66C7FF1F3001000098010000EB
:104B60006C01000006C7FF1FEEC6FF1FF0B55F46D1
:104B700056464D464446F0B489B069487844834669
:104B800068497944894605AC674A7A4492464D465D
:104B90006B681E68002E00D1B5E0DB681D68634BB2
:104BA0005F46FB589847201C614B7B449847061C86
:104BB0000598002840D1B5422DD85E4BFB58984748
:104BC0005D4B7B445B68DB68D9688846081C043011
:104BD0005A4BFB5898474246D269012A16D14346A0
:104BE0009B69E9184046321C2B1C554E7E44B04749
:104BF00001280BD100230093404600212A1C514D6F
:104C00007D59A847002801D172B6FEE745466B6A78
:104C10004046984714E04C4B7B449868A91B4B4B8B
:104C20005E46F3589847434BF3589847002807D1FE
:104C3000474BF358984703E03E4B5F46FB58984775
:104C4000444E7E44444B5846C55854E021680029E0
:104C500051DBA26890465369002B05D0101C04302C
:104C6000364B5F46FB58984704A83C4B7B4498471B
:104C7000031C206809283ED800F0F2FD0505053D1B
:104C80002A3805053D2A676840468069391840463C
:104C90001A1C3B1C324F7F44B84701282BD1404699
:104CA000416A88474246D269012A24D143469B691A
:104CB0006768DA190023009340460021214FBC4663
:104CC0005F4667443F68B847002814D172B6FEE7D4
:104CD000616840468161002901D172B6FEE759182A
:104CE00040461A1C1F4F7F44B84704E040461E4B05
:104CF0005946CB589847B068211C00220023A8478A
:104D00000028A3D143E7094B5A46D3589847201CA3
:104D1000D047061C0025059BAB4200D17BE78BE703
:104D20007C2100009AC6FF1FF7FEFFFF280100004C
:104D3000D7FEFFFFD80100005AC6FF1F3001000058
:104D400081FBFFFF6C01000004C6FF1F1C00000078
:104D500078010000DAC5FF1F1802000015FEFFFFF2
:104D6000D7FAFFFF87FAFFFF80000000FEE7C0468A
:104D7000F0B583B03B4C7C443B4BE35800933B4B3A
:104D8000E3580098984207D0384BE3580093384BCB
:104D9000E358009A9A4208D3364BE3580093364BB7
:104DA000E358009D9D4218D326E0314BE358009311
:104DB0002E4BE358D943009809188908013189001E
:104DC00000232A4AA2580192274AA258D058019D8E
:104DD000E85004338B42F9D1DEE7264BE3581A1D25
:104DE0002549615800910331891A890889005218B0
:104DF000002102C39342FCD1204BE3580093FF23D0
:104E0000009A9A431E4B9A60022190235B001D4A30
:104E1000D1501D4BD8780321884302221043D8700B
:104E2000DE780C25AE4308200643DE70174B9F7BCF
:104E30003026B74320263E439E739E7BAE433043CD
:104E40009873987B884302439A73114B5968802268
:104E50000A435A600F4BE35898470F4BE358984763
:104E6000FEE7C046821F0000500000006C000000FA
:104E70003002000054000000A80100003C000000C7
:104E800000ED00E00070004100500041004800418A
:104E900000400041C80000009001000000B583B050
:104EA000234B7B4408283ED800F0DAFC083D3D0542
:104EB00005140C1833008020000237E01D4B7B44A2
:104EC000186933E01C4B186A8005800F1B4BC340E8
:104ED000181C2BE01A4B7B44586927E0194A7A4486
:104EE00012680220104021D013481021C2681142DC
:104EF000FCD0154A7A441268510716D50020134A8F
:104F00009A589047124B7B449B681B041B0C5843D8
:104F10000CE05023084AD35C00205A0706D50D4BFD
:104F20007B44D86802E0002000E00B4803B000BDDD
:104F3000561E00009AC3FF1F0008004000127A00AE
:104F400082C3FF1F7AC3FF1F64C3FF1F3C01000021
:104F500052C3FF1F38C3FF1F006CDC0270B50C4B3F
:104F60001C6A017885784078012210408001402633
:104F7000B44304432A40D00180229443221C0243BC
:104F8000032001400902034802400A431A6270BD2F
:104F900000080040FFFCFFFFF0B55F4656464D4657
:104FA0004446F0B4264A948A4578037859425941D8
:104FB0008A4683789C46C178884603799946467B21
:104FC000077B817B8B4680681E4B7B4458610123A5
:104FD0005146880004218C43044348461840C000D1
:104FE00008218C43044340461840000110218C43A3
:104FF000044360461840400120218C430443181CA0
:10500000384080014027BC430443181C3040C00195
:105010008026B44304430720284000020A4D2C4058
:10502000044359460B4019030848231C03400B4313
:1050300093823CBC90469946A246AB46F0BDC04622
:10504000000800408EC2FF1FFFF8FFFFFFEFFFFFC9
:10505000F0B583B0041C264E7E44C568037D012B49
:1050600007D1018A01314900224BF358281C984787
:10507000051CA36818011F4BF358291C98470F22E1
:10508000024000096678B6012378DB011E43F6B2C0
:10509000194B44215E541604411E0905090D314384
:1050A0009964E678F600A178090331432679B600C1
:1050B0003143A67C03273E403143268A36040F4FF6
:1050C0003E403143E77C3F02E026F6003E4031435C
:1050D000247D2401302634402143D9640001121874
:1050E00055432D09064B7B44DD6003B0F0BDC0463F
:1050F000A01C00009C010000000800400000FF0709
:1051000072C1FF1F00B508284FD800F0A9FB154E4B
:105110004E050E1C07234600002047E0244B196A69
:1051200002220A431A62002040E0214B99690222C0
:105130000A439A61002039E01D4B198A02220A4372
:105140001A82002032E01A4B998A02220A439A827C
:1051500000202BE0174A7A4411680223194311609A
:10516000134A9384111C1022CB681A42FCD0124AB5
:105170007A4491680E4BD96252689A6200229A84EE
:10518000191C1022CB681A42FCD00C4B7B441A68C5
:1051900092B2074B9A84002008E0054A4423D05C71
:1051A00002210143D154002000E0172000BDC04679
:1051B0000008004002C1FF1FE8C0FF1FCCC0FF1F56
:1051C00000B5082823D800F04BFB07222205190957
:1051D000170B0D0001201BE0012310E002230EE05D
:1051E00010230CE050230B4AD05C032318400338F3
:1051F00043425841C0B20BE0082300E00423054AB3
:10520000D0681840C01A43425841C0B200E00020A4
:1052100000BDC04600080040F0B591B0484F7F4443
:10522000C222D200474B9A60474A51681E239943D5
:1052300002231943516002AA13700024161C434B29
:10524000FD58E0B2311CA8470134252CF9D10023C8
:105250000CA803708370802212028260C370012246
:10526000027103738373062242704373384BFB58F9
:1052700098470520374BFB589847374BFC5805207B
:10528000A0470028FBD02F4B998A80220A439A829C
:1052900000240BA844700126867004702F4BFB5825
:1052A000984706202B4BFD58A8472D4BFB58984795
:1052B00002A94E604C700C724C7205230B700120D9
:1052C000284BFB5898470120274BFB58984705A8C7
:1052D00044708470C4700471244B836080231B026B
:1052E000C36006820475C47484740470204BFB5838
:1052F00098470820A847184BFC580820A0470028CA
:10530000FBD0104A4423D05C802149420143D15450
:10531000184A0023137253729372D372012202A9A6
:105320004A604B700B724B7208230B7000200D4BC0
:10533000FB58984700200C4BFB58984711B0F0BD24
:10534000DA1A000000080040004000418800000018
:10535000BC0100001002000038020000F000000054
:1053600070020000BC00000064010000006CDC0260
:105370000000000000040040064B996908220A431F
:105380009A610122044B1A70191C0B781342FCD14C
:105390007047C04600040040000C0040F0B547468E
:1053A00080B482B0071C2D4E7E4480460D782D02BD
:1053B00005434B78002B02D08023DB021D434B7A40
:1053C000002B02D080231B031D434C68012C19D9EC
:1053D000631E1C4210D1022C06D902230022013286
:1053E0005B009C42FBD800E0002212023A43904648
:1053F00080235B031D4305E024023C43A046802339
:105400009B021D430B7A002B02D080239B031D437C
:10541000134A53785BB2002BFBDB124BF3589847CF
:10542000114B1F700E4A53785BB2002BFBDB0C4B09
:1054300042469A601A1C53785BB2002BFBDB084B88
:105440005968802252020A4015435D60074BF358A9
:10545000984702B004BC9046F0BDC0465019000009
:10546000000C0040A0000000080C004008000000F4
:1054700030B583B0051C0E4C7C440E4A53785BB2A9
:10548000002BFBDB0C4BE35898470C4B1D70094A73
:1054900053785BB2002BFBDB064B5968802252022B
:1054A0000A435A60064BE358984703B030BDC046E4
:1054B00080180000000C0040A0000000040C004018
:1054C00008000000F0B583B0051C1E4C7C441E4A49
:1054D00053785BB2002BFBDB1C4BE35898471C4B0B
:1054E0001D70194A53785BB2002BFBDB164F7868AE
:1054F000C004C00E174BE3589847061C144B1D7090
:105500007F68FF02FF0F144B1D700F4A53785BB288
:10551000002BFBDB0C4B9D682D0AADB20F4BE35803
:105520009847002F08D1012D08D90D4BE358301CA6
:10553000291C9847061C01E00135EE40301C03B0E1
:10554000F0BDC0462C180000000C0040A000000078
:10555000040C004024020000080C00400800000079
:105560009C01000030B583B0051C094C7C44094BFC
:10557000E3589847084B1D70084B59888022D20188
:105580000A435A80064BE358984703B030BDC046E3
:105590008C170000A0000000020C0040000C00402E
:1055A0000800000030B583B0051C124C7C44124B3F
:1055B000E3589847114B1D70114B58880005000F98
:1055C0005988104A0A405A8059880F4A0A405A801E
:1055D000191C8022D2014B881342FCD1084B0102D6
:1055E0005888084A02400A435A80084BE3589847B3
:1055F00003B030BD4C170000A0000000020C0040BA
:10560000000C0040FFF0FFFFFFBFFFFF080000009D
:1056100010B582B0064B7B440C7824020443054A43
:105620009A5801929047A4B2034B5C8002B010BD1F
:10563000E216000040020000000C004030B583B0CC
:10564000051C0A4C7C440A4BE3589847094B1D70D3
:10565000094B5D882D052D0F084BE3589847281CF2
:10566000074BE358984703B030BDC046B41600005E
:10567000A0000000020C0040000C004008000000E8
:10568000A40000007047C04610B582B0094C7C44AD
:10569000094BE3589847094BE3589847084BE358A0
:1056A0009847084BE3589847074BE358984702B090
:1056B00010BDC0466A160000FC0100005C0100003D
:1056C000F80100001C0100009C00000082B0114B9A
:1056D0007B44114A7A441268002A13D1EFF31082F6
:1056E000002A0BD172B6BFF35F8F0C4A9A58002381
:1056F000137001220A4B7B441A7103E00022094B0C
:105700007B441A71084B7B441A6801321A6002B05C
:105710007047C04628160000A4BBFF1FB000000061
:1057200082BBFF1F78BBFF1F72BBFF1F82B00D4AF9
:105730007A440D4B7B441968013919601B68002BB2
:105740000DD10A4B7B441B79002B08D0084BD35852
:1057500001930123019A1370BFF35F8F62B602B009
:105760007047C046C815000044BBFF1F34BBFF1F75
:10577000B000000010B584B0084A7A44802403AB1E
:105780001C700C785C704C789C708978D970191CEE
:10579000034BD358984704B010BDC0467E15000097
:1057A0006802000030B5D378002B1ED11378802B0F
:1057B00004D01B0680246402234300E000235478B5
:1057C0000225AC430AD19478002C03D18024A40292
:1057D000234302E0C024E402234341605478013CA7
:1057E000012C04D8114C234001E0416000230D043A
:1057F0002D0CA024E4052C431C4384620D0CD02402
:1058000024062C431C438462D478002C0CD15C0306
:1058100005D59378012B01D1816100E04161537876
:10582000013B012B00D8816030BDC046FFFFFBFF6C
:1058300008B5031C0A1CC1090020002903D158091E
:10584000C001054940181F210B4001219940034B1D
:105850007B44984708BDC0460044004151FFFFFF0C
:1058600002B4714649084900095C49008E4402BCF3
:105870007047C046002934D00123002210B488426A
:105880002CD301242407A14204D2814202D209016F
:105890001B01F8E7E400A14204D2814202D2490090
:1058A0005B00F8E7884201D3401A1A434C08A04233
:1058B00002D3001B5C0822438C08A04202D3001BC9
:1058C0009C082243CC08A04202D3001BDC082243E0
:1058D000002803D01B0901D00909E3E7101C10BC04
:1058E0007047002801D00020C04307B4024802A13D
:1058F0004018029003BDC046190000000029F0D0F6
:1059000003B5FFF7B9FF0EBC4243891A1847C046DA
:105910007047C0469C460304F0B51B0C17043F0CAF
:10592000150C1E1C041C000C7E436B43474345436F
:10593000FB18300C1818874202D980235B02ED183F
:10594000030CED1863465C434A433604360CA11839
:10595000000480194919F0BD70B50D4E0D4D00249D
:10596000AD1BAD1005D0A300F35801349847A542F4
:10597000F9D101F0B1F9084E084D0024AD1BAD106E
:1059800005D0A300F35801349847A542F9D170BD62
:10599000E46C0000E46C0000E46C0000EC6C0000BF
:1059A000F0B50F2A35D9031C0B439C0735D1161CC3
:1059B000103E36093501451910350C1C031C2768AB
:1059C0001F6067685F60A7689F60E7681034DF60EA
:1059D0001033AB42F3D1731C1B01C518C9180F2338
:1059E0001340032B1BD91C1FA4080134A40000235F
:1059F000CE58EE500433A342FAD1ED18C918032350
:105A00001A4005D00023CC5CEC5401339342FAD108
:105A1000F0BD051C002AF5D1FAE7051CF2E71A1CB7
:105A2000F8E7C046F0B5830746D0541E002A42D09E
:105A3000CEB2031C032503E0621E002C3BD0141CD5
:105A400001335A1E16702B42F6D1032C2BD9FF2599
:105A50000D402A0215432A0415430F2C15D9271C83
:105A6000103F3F091E1C3A011036B6181A1C15606B
:105A700055609560D5601032B242F8D101373F01D0
:105A80000F22DB191440032C0DD9271FBF08BA00C1
:105A90001E1DB6181A1C20C2B242FCD10137BF002D
:105AA0000322DB191440002C05D01C19C9B219704F
:105AB0000133A342FBD1F0BD141C031CC5E7C04653
:105AC00070B5051C0020002A2CD02B1C0B439C0712
:105AD00029D1032A27D92C680E68B44223D1131F79
