:1000000080400020E1380000DD380000DD380000CD
:1000100000000000000000000000000000000000E0
:100020000000000000000000000000005D1B000058
:100030000000000000000000D11B0000151C0000A3
:10004000DD380000DD380000DD380000DD3800005C
:10005000DD380000DD380000DD380000DD3800004C
:10006000DD380000BD130000D1130000E5130000CF
:10007000F91300000000000000000000DD3800005F
:10008000DD380000DD380000DD380000DD3800001C
:10009000DD3800000000000000000000DD38000036
:1000A000DD380000DD380000DD380000DD380000FC
:1000B00010B5064C2378002B07D1054B002B02D03E
:1000C000044800E000BF0123237010BD3804002065
:1000D000000000002C47000008B5084B002B03D09F
:1000E0000748084900E000BF07480368002B03D019
:1000F000064B002B00D0984708BDC046000000000A
:100100002C4700003C0400202C47000000000000A9
:1001100082B0094B7B44002801D172B6FEE7074A42
:100120009A5801921278022A03D1044A9A5801235C
:10013000137002B07047C04614460000D80000009B
:1001400010B582B01A4C7C44002801D172B6FEE78B
:10015000184BE35818780138072827D804F038F9E5
:100160000A04260426262604124BE3580193012391
:10017000019A1370802292040F4B5A610F4BE3587F
:100180001A68D369002BFCD151680D4B0B405360AA
:100190000A4BE0580023837100210A4BE35898472B
:1001A000094BE3581868094BE358984702B010BD53
:1001B000E2450000D8000000004400413C0100007E
:1001C000FFFFFDFF3400000074010000200100006B
:1001D000F0B54F464646C0B485B07A4C7C447A4B65
:1001E000E3580393012303990B70774BE7580025DD
:1001F000764A90463B78032B2FD0082B00D180E025
:10020000012B00D0CEE0724BE358AA221A705A702C
:100210009A70704BE3581E686F4BE3589847021C66
:100220000095301C02212B1C6C4EA659B0476C4B1C
:10023000E3581A68D369002BFCD153684646334013
:100240005360674BE0588571614BE3580393191C69
:100250000322644BE3589847A4E0634BE3581978B2
:100260008946624BE35803931B78002B17D1604BF0
:10027000E3580393CB00039A9B5C002B0FD05C4B9D
:10028000E1584B46DA00505C514BE35818708A181D
:100290005178597091789970D278DA7005E04C4BAA
:1002A000E3581D705D709D70DD70494BE3580393FA
:1002B000181C04214F4BE3589847464BE3581E68DF
:1002C000454BE3589847021C0095301C02212B1C1B
:1002D000424EA659B047424BE3581A68D369002BE7
:1002E000FCD153684646334053603D4BE05885711E
:1002F000374BE3580393191C05223A4BE3589847B0
:1003000050E03A4BE35803931B78002B19D1384B3C
:10031000E35803934946CB00039A9B5C002B10D013
:10032000334BE1584B46D8000A181679284BE3584E
:100330001E7056795E7096799E70D279DA70455447
:1003400005E0234BE3581D705D709D70DD70204B00
:10035000E3580393181C0421264BE35898471D4B80
:10036000E3581E681C4BE3589847021C0095301C4C
:1003700002212B1C194EA659B047194BE3581A6895
:10038000D369002BFCD15368464633405360144B6D
:10039000E05885710E4BE3580393191C0522114B4D
:1003A000E3589847144BE65801233370BFF35F8F2F
:1003B00062B6281C114BE358984772B6BFF35F8FA3
:1003C000357017E74C450000D8000000FFFFFDFF27
:1003D000A00000004C010000C00000003801000037
:1003E0003C0100000802000028000000CC010000D1
:1003F000800100006C01000094000000400100003A
:10040000F0B589B02E4C7C442E4BE3589847012719
:1004100007AD6F700026AE702F701B20291C2A4B71
:10042000E358049398471920291C049DA847274B9B
:10043000E3589847264BE3589847264BE3580493D4
:1004400003230093244BE3580193029603960498E8
:10045000224979448C220023214D6559A847214B1C
:10046000E3581F70BFF35F8F62B61F4BE3580093D2
:100470001E4878440321002200231D4D6559A847DA
:100480001C4BE75838601C4BE35800931B487844DA
:10049000012100220123A847194BE35818603D6849
:1004A000184BE3589847021C0096281C0121002392
:1004B000154D6559A847154BE3589847FEE7C046C8
:1004C00022430000240000009801000058010000B1
:1004D000CC000000A801000074010000564200009A
:1004E0005800000094000000900100003E4200000F
:1004F000100000004C010000B80100002A4200007A
:10050000D4000000C000000038010000A401000079
:1005100010B5031C4908402099420CD30024C91A85
:10052000601C80B28B4201D8041CF8E74020FF2CED
:1005300001D81480002010BDF0B55F4656464D46E8
:100540004446F0B487B0061C0D1C049210AA107823
:10055000674A7A44311C41434024A94200D9BAE099
:10056000002B4FD1634BD35802930021321C002340
:10057000029CA04783462E1C002700200021002259
:1005800000233F25AC460124A0460290039161461A
:10059000203903D445468D40A94605E02020614618
:1005A000441A4546E540A946404661468840824691
:1005B000101C191C80185941021C0B1C5C464D462E
:1005C0002C4202D0424602430B1C9F420CD801D160
:1005D000964209D8921BBB415046029908434946AE
:1005E000039C2143029003916546013DAC46CED267
:1005F000029803993D4B3C4A121A8B41110C1B0483
:10060000194365E00021012B62D16C0FED00AB4670
:10061000384BD3580293321C0023029EB047061C6D
:100620000F1C00230125029603979A46A1465746C0
:10063000FFB2059700208046002200233F24271C9C
:10064000203F03D4291CB940019104E02026371B28
:10065000281CF8400190291CA1400091101C191C75
:1006600080185941021C0B1C5E46009F3E40B44658
:10067000019E4F463E4067463E4302D02A1C02433D
:100680000B1C039898420BD802D10299914207D8CB
:10069000029E039F921BBB41474600980743B84602
:1006A000013CCCD2414652468B1ADB08124CA34285
:1006B00008D9059A0132D2B205920126B2445746B2
:1006C000082FB4D140240598082804D041031943C9
:1006D000049C21800024201C07B03CBC9046994615
:1006E000A246AB46F0BDC04600000000010000007D
:1006F000D6410000A4000000FF1F0000C046C04615
:1007000030B585B0051C124C7C44124B7B441B78E1
:10071000002B01D0002910D003A90D7013200E4B1F
:10072000E358984713200D4BE35898470C4B7B44F4
:100730005D7001221A70002008E00A4B7B445A7851
:100740001D20551B6A1E95416D42284005B030BDE5
:100750002040000058FDFF1F700000008C010000C9
:1007600036FDFF1F28FDFF1F00B5284B984219D00A
:1007700003D8274B984207D03EE0264B98421FD023
:10078000254B98422AD037E0002003293DD8081C89
:1007900003F01EFE02340406204836E0204834E010
:1007A000204832E0002003292FD8081C03F010FE57
:1007B00002280406032028E01B4826E01B4824E00A
:1007C0000020032921D8081C03F002FE021C0406A5
:1007D00017481AE0174818E0174816E000200329C8
:1007E00013D8081C03F0F4FD0210040613480CE0B3
:1007F00013480AE0134808E0002006E0124804E02D
:10080000124802E0124800E0124800BD000C00420D
:1008100000080042001000420014004203000400DF
:10082000030006000300070003001E0003001F0072
:100830000300080003000A0003000B00030010007F
:100840000300120003001300030005000300010071
:10085000030009000300110070B584B00F4A7A4408
:10086000694670CA70C112680A60031C009A82420D
:100870000FD0019C844208D0029D854207D0002001
:10088000039E9E4207D1032004E0012002E00220E3
:1008900000E00020C0B204B070BDC046623E00005F
:1008A00010B582B0384C7C44384BE3581A68D36991
:1008B000002BFCD15168364B0B405360334BE3584F
:1008C0000193002301998B71324BE35801931B78FC
:1008D000022B02D0042B35D054E02F4BE358019368
:1008E000181C04212D4BE358984700284AD0294B67
:1008F000E35801930323019A1370294BE3580193A2
:10090000012301990B70244BE3581A78254961584B
:100910000A705A78244961580A709A7823496158B4
:100920000A70DB78224AA2581370224BE3581868E9
:10093000214BE3589847012824D1802252051F4BB0
:100940001A601FE0144BE3580193181C0421134B49
:10095000E3589847002815D080229204184B9A61DA
:100960000C4BE35801930823019A1370114BE35881
:100970001868114BE3589847012803D1802252058B
:100980000E4B1A6002B010BD823E00003C01000018
:10099000FFFFFDFFD800000028000000EC01000070
:1009A0002C00000044010000D801000004010000F8
:1009B00078000000740100008C00000004ED00E0ED
:1009C0000044004170B584B0414C7C44414BE35835
:1009D0001B68DA69002AFCD15968802292020A4316
:1009E0005A603C4AA2580292012202998A71DA693D
:1009F000002AFCD1384AA25802921278032A04D065
:100A0000082A44D0012A61D120E0334BE3580293F5
:100A10000423029A1370314BE3581D68304BE3589E
:100A20009847021C00230093281C07212D4D65596F
:100A3000A847284BE35802932B4BE35803930298A3
:100A4000191C0522294BE35898473FE0224BE358F5
:100A500002930223029D2B70204BE3581D68204B0C
:100A6000E3589847021C00230093281C07211D4DC2
:100A70006559A847174BE35802931B4BE358039360
:100A80000298191C0522194BE35898471EE0DA69B1
:100A9000002AFCD15968164A0A405A600D4BE358A7
:100AA00000259D710D4BE3581E680D4BE358984788
:100AB000021C0095301C072100230A4D6559A847E8
:100AC000054BE3580293012302990B7004B070BDEB
:100AD0005E3D00003C010000D80000004C01000019
:100AE000000100003801000028000000AC010000F7
:100AF000FFFFFDFFF0B593B0314D7D448023DB0552
:100B00000293002302AA536000219372D37201243E
:100B10002420145425201454262013542720135421
:100B200093622C2013542D20135453611382002000
:100B3000D07611761177132090765177E121490212
:100B400011621381547680235B03D3601D4B1363C2
:100B50001D4B536301235B429363D3631B4BEF58DD
:100B6000381C1B491B4BEB5898473E68301C1A4BEE
:100B7000EB5898471F2318408440184B1C603A6874
:100B8000D369002BFCD132680223134333600F4B2F
:100B9000EC58201C124979440122124BEE58B04700
:100BA0003125625D022313436355201C0E497944AD
:100BB0000022B047625D01231343635513B0F0BDBB
:100BC0002E3C000002001600020017003C0100004D
:100BD00000140042500100006800000000E100E045
:100BE00007FDFFFF0800000013FEFFFF7047C0462F
:100BF000F0B557464E464546E0B484B0364C7C448A
:100C0000364BE35802930123029A1370344BE35896
:100C100002930023029E3370314BE758BA46DE221E
:100C20009046002556463378002B34D02D4BE358A0
:100C300002931B78DBB22C4AA65833702B4BE35837
:100C400002931B78DBB27370294BE35802931B7835
:100C5000DBB2B370274BE35802931B78DBB2F3701F
:100C60001F4BE3581D70244BE3581F68234BE35878
:100C70009847021C0095381C02212B1C204FE75975
:100C8000B847204BE3580293181C311C04221E4B1A
:100C9000E35898471AE0144BE75842463A70164B0F
:100CA000E3581E68154BE3589847021C0095301C0A
:100CB00002212B1C124EA659B047124BE358039346
:100CC000181C391C0122104BE3589847281C0F4B65
:100CD000E3589847A6E7C0462A3B0000D000000032
:100CE0002C0000004401000074000000D801000046
:100CF0000401000078000000C4010000C0000000F2
:100D00003801000028010000080200004001000036
:100D1000F0B55F4656464D464446F0B487B0884D20
:100D20007D44884BEB580393012303990B70864B4A
:100D3000EB5803930023039A1370824BEC58A2469E
:100D4000002756463378DBB2012B00D1D8E0102BB8
:100D500000D0EFE07C4BEB580393012303990B7019
:100D60007A4BEB5803935B78002B00D1BAE0774BBA
:100D7000EB5803935B78DBB2482B00D9B2E0734B9E
:100D8000EB585878C0B29B78DBB2012B12D8012205
:100D900090466F4BEB581B889B466E4BEB581C885C
:100DA000A1466D4BEB581E7805963C1C674BEB58E3
:100DB000049308E0654BEB5803939B78DBB29846AD
:100DC000002BE6D18EE00019C0B2482804D9634B4D
:100DD000EB5848219847C8B2049EF378002B0ED1F7
:100DE0005F4BEB580393C30003995B5C002B06D069
:100DF0005B4BEB580393C300039A9F5461E0834617
:100E0000524BEB58DA78D2B29446554AAA5803921C
:100E1000C10066468E541A79D2B29446039E721867
:100E20006146D1715979C9B2517099790F26B14390
:100E30009170597AC9B21171997AB1435171D979C6
:100E40001A7A0B02134308D1454BEB580393C300A6
:100E50000399CB180122DA700FE01B09FF263340FB
:100E6000D9B23F4AAA580392C200039EB218D17069
:100E70009178C9B2917099460597344BEB58D97A5D
:100E80001A7B0B0213430AD1354BEB580393594697
:100E9000CB00039AD31801269E71BB4611E01B09B3
:100EA000FF210B40D9B22E4AAA5803925E46F200A7
:100EB000039EB21891715179C9B251719946059743
:100EC000BB460134E4B2A04500D97CE7204BEB5887
:100ED0005A461A801F4BEB584C461C801E4BEB5851
:100EE000059E1E70184BEB581F70184BEB585A7B21
:100EF000D2B29A73134BEB580393012303990B70EF
:100F0000184BEB581C68184BEB589847021C00977D
:100F1000201C02213B1C154C2C59A047144BEB58AC
:100F200003930A4BEB5804930398191C0122114BAD
:100F3000EB589847381C104BEB58984701E7C046D0
:100F4000083A000094010000CC010000700100008C
:100F5000F401000038000000E4000000DC010000A3
:100F600080010000FC010000C0000000380100000A
:100F700028010000AC0100004001000000B583B072
:100F8000074B7B44002801D172B6FEE7054A9A5808
:100F90001068054A9A580192904703B000BDC046B8
:100FA000A63700005C0000002001000000B583B0FF
:100FB0000E4B7B44002801D172B6FEE70C4A9A58CA
:100FC00001921278D2B2012A07D0022A0CD1084A23
:100FD0009A580192012201990A70064A9A5810689B
:100FE000054A9A580192904703B000BD7637000039
:100FF00094010000180100002001000030B585B008
:10100000204C7C44204BE35802931B78DBB2012B2D
:1010100002D0022B28D033E01C4BE35802931B78FC
:10102000DBB2FB2B2CD1184BE35802930223029A1C
:101030001370174BE3581D68164BE3589847021C72
:1010400000230093281C0721134D6559A847134B13
:10105000E35802930D4BE358191C013102980C22FE
:101060000F4BE35898470BE0074BE35802931023CC
:10107000029D2B700B4BE35818680B4BE3589847B5
:1010800005B030BD2637000094010000700100005B
:10109000FC010000000100003801000028010000F0
:1010A000AC010000180100008C000000F0B593B006
:1010B000314D7D448023DB050293002302AA536057
:1010C00000219372D372012724201754252017542E
:1010D000262013542720135493622C2013542D20C0
:1010E0001354536113820020D07611761177517614
:1010F000132090765177E1214902116213818023F8
:101100005B03D3601D4B13631D4B536301235B4291
:101110009363D3631B4BEE58301C1B491B4BEB589E
:1011200098473468201C1A4BEB5898471F231840E7
:101130008740184B1F603268D369002BFCD12268AE
:101140000223134323600F4BEC58201C12497944AF
:101150000122124BEE58B0473125625D0223134342
:101160006355201C0E4979440022B047625D01237B
:101170001343635513B0F0BD763600000200100033
:101180000200110028010000000C00425001000084
:101190006800000000E100E0ABFEFFFF0800000077
:1011A00083FAFFFFF0B587B0344C7C44344BE358EE
:1011B0009847344BE358049302270097324BE35887
:1011C00001930026029603960498304979448C22B4
:1011D00000232F4D6559A8472E4BE35804930097E1
:1011E0002D4BE35801930296039604982B497944BA
:1011F0008C220023A8472A4BE358009329487844BF
:10120000C82100220223284D6759B847051C274BE7
:10121000E3581860264BE35804939847021C009645
:10122000281C01210023234D6559A847224BE35870
:10123000009322487844142100220223B847071C57
:101240001F4BE3581860049B9847021C0096381CFB
:1012500001210023A847002500211A4BE45807E08C
:10126000C21811550133082BFAD10135492D02D08E
:101270000B1CE800F4E707B0F0BDC0467E35000067
:101280000C010000440000005C0000000435000078
:10129000580000001C00000018010000EA340000A3
:1012A000C8000000E234000010000000FC01000053
:1012B000C000000038010000E8000000B034000069
:1012C000C40100008001000030B500290CD0031CCF
:1012D000421C4C1EE4B2151900221C781219D2B21D
:1012E0000133AB42F9D100E00022435C55200243B8
:1012F000981A4242504130BD10B542180023137075
:1013000000290BD0031C01300139C9B240181C78E8
:1013100011786118117001338342F8D11178552387
:101320000B43137010BDC0467047C04630B50F4A1E
:101330007A440F4B7B441B78002B10D10D4B7B4420
:101340000D4D7D445D600D4C1259002414609D606C
:101350005460DD6094601D61D46001221A708000C9
:10136000074B7B441818416030BDC046F83300007D
:1013700038F1FF1F2EF1FF1FE3FFFFFFE000000029
:101380000AF1FF1F70B584B0061C084C7C4403AD05
:10139000281C074979440422064BE3589847301C1F
:1013A000054BE3589847285604B070BD9C330000A5
:1013B00054330000500000000402000008B5034B45
:1013C0007B445B680020984708BDC046ACF0FF1F17
:1013D00008B5034B7B449B680120984708BDC04675
:1013E00098F0FF1F08B5034B7B44DB680220984749
:1013F00008BDC04684F0FF1F08B5034B7B441B6942
:101400000320984708BDC04670F0FF1FF0B55F4647
:1014100056464D464446F0B49BB0061C0C1C089240
:10142000C64D7D4409953160081CC54BEB58984763
:10143000021C23680520DF0700D577E123681C2004
:10144000990700D572E1BF4B186A951C0127391C1A
:10145000A940014319622D23089D1F1CEB5C19A9AB
:101460000B701432D2B29146101CB74B099DEB5849
:1014700098474846B54BEB589847089DE85D0021D2
:10148000B34B099DEB589847089DEB7A7371242361
:10149000EB5CB3712523EB5CF371EB7E33722B7F36
:1014A00073723768B946381CA54B099DEB589847AD
:1014B000143000226B464E331A80089D2D8AA846B0
:1014C0008023DB019D421CD08023DB019D4204D898
:1014D00080239B019D420ED007E0C023DB019D428B
:1014E0000CD080231B029D4202D0102700250AE069
:1014F0000327002507E01027012504E00827012520
:1015000001E008270025089909680A91089AD2681D
:101510000C92089B5B690D930899097E0E91262316
:10152000089AD35C9B4653689A46002B17D08023B9
:101530005B059A453CD12723D35C002B3CD1156A2F
:10154000C0B2844B099AD3589847011C281C6A469C
:101550004E32814B099DEB589847031C29E0272305
:101560000899CB5C002B0FD00A6A07928B6A06930E
:101570000097101C191C6A464E322B1C774D099F90
:101580007F59B847031C14E00899096A1091C0B24A
:10159000704B099AD3589847011C009710986A46D7
:1015A0004E322B1C6D4D099F7F59B847031C00E03C
:1015B0000023181E00D0B9E0089D6B7E002B02D0DE
:1015C000AB7E4F46BB733268089F099DD369002BE1
:1015D000FCD1089709956B464E331B88484683819A
:1015E0000C990A9D29430D9F3943504601434246B9
:1015F00011430E9D2B0219435F467B071943272396
:10160000089DEB5C002B01D104231943089D287F22
:1016100040026B7E9B0218436B7F1B0218432423FE
:10162000EB5C5B0418432523EB5C1B041843EB7A4B
:1016300018432B89FF2B04D08022520411431843F6
:1016400006E0089DEB7E002B02D08023DB041943CB
:101650002C23089DEB5C002B03D1414B9B789F070B
:1016600001D5802319433268089F099DD369002B57
:10167000FCD1089709954A4650603268D369002B1F
:10168000FCD1089709954B461960802218AB1A7057
:1016900000225A70DA709A703D6B14957F6B159723
:1016A0000898806B16900899C96B1791002718AAA3
:1016B000099DA046141CF9B2BB0014AA9858002832
:1016C00003D14046274BEB589847431C06D0207067
:1016D000000CC0B2211C244BEB5898470137042F53
:1016E000E9D10023F36033617361B361F361336265
:1016F000B36273620022F385B3853023F254312341
:10170000F2543223F2543323F25430680C4BEB582A
:101710009847041C154BEB580A93191C144BEB58B3
:101720009847144BEB58A400E65000201BB03CBC7B
:1017300090469946A246AB46F0BDC046063300002F
:101740000402000000040040700000008C01000052
:101750008801000014010000B4000000180000001F
:1017600000200041180200000C0200009C01000053
:10177000EC000000E0000000F0B5474680B482B005
:10178000051C0F1C90460F4C7C4406680E4BE3581A
:101790009847EB8D9BB2002B04D00C4BE358984735
:1017A00005200BE04346EB85084BE3589847AF62B2
:1017B00005223323EA540123B375002002B004BC90
:1017C0009046F0BDA02F000084000000040000003F
:1017D000F0B5474680B482B0041C0F1C9046144DEF
:1017E0007D440668134BEB589847A38D9BB2002BA2
:1017F00004D0114BEB589847052015E04346A385CC
:101800000D4BEB589847676205223223E2540423BC
:10181000B375237A002B01D02023B375637A00209F
:10182000002B01D00823B37502B004BC9046F0BD74
:10183000482F00008400000004000000931C9B005F
:10184000C3185960012393401A1C3023C15C0A431A
:10185000C254704730B583B0074C7C441723002A2C
:1018600007D0C5791C23002D03D0044BE3589847BB
:10187000031C181C03B030BDCE2E000098000000E1
:1018800030B583B0074C7C441723002A07D08579F4
:101890001C23002D03D0044BE3589847031C181C4D
:1018A00003B030BDA22E0000AC0000000368002988
:1018B00002D0012905D008E004221A76002383858E
:1018C00003E002221A760023C3857047F0B583B087
:1018D000664B7B44664A9A58800085582C68E369B9
:1018E000002BFCD1237EA67D1E403123EB5C3022F1
:1018F000AF5C1F40F10720D5EB8D9BB2002B1AD0B7
:10190000AB6A1A78D2B2591CA9626979012904D14B
:10191000597809020A430233AB62D305DB0D2385F4
:10192000EB8D013B9BB2EB85002B06D10123237588
:101930000223A37501E001232375B20709D5022311
:10194000237500223323EA54FB0702D5281CE968DB
:10195000884772076AD5AB8D9BB2002B64D0638B2E
:10196000DBB2190702D43F22134001E037221340B3
:10197000002B37D09A0707D51A223223EA54628BFC
:1019800002231343638327E0590707D51E2232231E
:10199000EA54628B0423134363831DE0DA0707D5FF
:1019A00013223223EA54628B01231343638313E02F
:1019B000D90607D542223223EA54628B10231343FF
:1019C000638309E020221A4206D041223223EA54DE
:1019D000628B2023134363837A0727D5281C6B6906
:1019E000984723E0228DD205D20DD3B2696A0B70DD
:1019F0006B6A591C69626979012904D1120A5A700B
:101A00006B6A01336B62AB8D013B9BB2AB85002BE4
:101A10000CD10423237500223223EA54BA0705D5DA
:101A2000281C2B69984701E004232375F10607D58C
:101A3000102323752376FA0602D5281CEB699847F4
:101A4000B10607D52023237523763A0702D5281C33
:101A5000AB699847310707D5082323752376BA0663
:101A600002D52B6A281C984703B0F0BD562E000003
:101A7000E0000000031C08334360012252428260F0
:101A8000C3600361002303607047C0460023036105
:101A90007047C04643684B609A688A609A68516094
:101AA00099600861036801330360704730B50C68C2
:101AB000021C0832631C01D1026905E053681D68ED
:101AC000AC4201D31A1CF9E753684B6099608A60F5
:101AD0005160086103680133036030BD03694268E7
:101AE000816891608268416851605A68824201D180
:101AF00092685A60002202611868013818607047C5
:101B0000044B7B441B68013301D072B6FEE772B60A
:101B1000FEE7C046FAE4FF1F064A13681868203043
:101B200080F30988022080F314883FBCAE4662B679
:101B300000BDC046FC1C002010B5031F80246404B7
:101B40001C60043B1960043B034979441960143B51
:101B50001A60403810BDC046B3FFFFFF7047C04653
:101B600080225205034B1A60BFF34F8FBFF36F8F74
:101B70007047C04604ED00E072B6054B7B441A681E
:101B800001321A60BFF34F8FBFF36F8F7047C046AB
:101B900080E4FF1F074B7B441B68002B01D172B60A
:101BA000FEE7013B044A7A441360002B00D162B681
:101BB0007047C04666E4FF1F56E4FF1FEFF3108036
:101BC00072B670470020C04680F310887047C04648
:101BD000EFF309800E4B1A6820381060F0C04446BD
:101BE0004D4656465F46F0C008B572B601F04AF958
:101BF00062B60CBC116808681030F0C8A046A9464F
:101C0000B246BB4680F309882038F0C81847C04662
:101C1000FC1C002030B583B00A4C7C440A4BE358CE
:101C20009847051C094BE3589847002803D08022A9
:101C30005205074B1A60281C064BE358984703B01F
:101C400030BDC0460E2B0000F8010000D00100009E
:101C500004ED00E0F80000000022044B1A60044A82
:101C6000044B1A600722044B1A60704718E000E02A
:101C70007FBB000014E000E010E000E000B583B09E
:101C80000C4A7A440C4B1868FF210904014319607F
:101C90001868FF21090601431960084BD35898477B
:101CA0000022074B7B441A60064B7B449847064B47
:101CB0007B449847A62A000020ED00E06400000065
:101CC00058E3FF1F6BFEFFFF4DFEFFFF70B582B0B4
:101CD000051C184C7C44430702D007239D4308355C
:101CE000154BE3589847154B7B441B68002B06D1D6
:101CF000134B7B441A1C0C3207218A431A60114B88
:101D00007B445B6FED18104A954209D8AB4209D26B
:101D10000E4A7A441668F6180D4B7B445D6702E064
:101D2000002600E000260B4BE3589847301C02B019
:101D300070BDC046542A0000FC000000A0E7FF1F51
:101D400096E7FF1F88FEFF1F6717000076E7FF1F5B
:101D50006EFEFF1FA0010000002801D072B6FEE752
:101D60007047C04670B582B0041C161C1E4B7B44E5
:101D7000026C002A09D1006800282FD160681B4A34
:101D80009A5890470023636028E0002E0ED18068A7
:101D9000174D5D590195A847A168226C8B18A36067
:101DA000606883421AD32168A16017E0C068104DB3
:101DB0005D590195A847236C5A42E0688318E36097
:101DC00021688B4202D263689A18E260022E05D124
:101DD000A36B002B02D0A36B013BA363A36B013366
:101DE000A36302B070BDC046BA2900001001000014
:101DF0005000000030B583B001900A1C114D7D44A5
:101E0000C46C002C01D172B6FEE7A16BE36B994262
:101E100001D372B6FEE7A16B00208B420FD9201CC4
:101E200001A9094B7B4498470020636A002B06D028
:101E3000201C2430054BEB589847431E984103B0B3
:101E400030BDC0462A2900003DFFFFFFDC00000036
:101E500070B582B00A4B7B440568002D0DD0026C32
:101E6000C668B418C4604668B44200D3C560C4688C
:101E7000081C211C034C1C59A04702B070BDC04671
:101E8000D228000050000000F0B583B0041C2B4D98
:101E90007D442B4BEB589847A36C002B21DD271C6E
:101EA0002437284E7E44E36C002B08D0201C0021F0
:101EB000B04701280FD1244BEB5898470BE0636AD9
:101EC000002B0ED0381C214BEB589847002802D02D
:101ED0001D4BEB589847A36C013BA364A36C002BEC
:101EE000E1DC01235B42A364194BEB589847144B88
:101EF000EB589847636C002B17DD2369002B14D037
:101F0000271C1037114BEE5802E02369002B0CD030
:101F1000381CB047002802D00B4BEB589847636C35
:101F2000013B6364636C002BEFDC01235B42636461
:101F3000074BEB58984703B0F0BDC0469828000007
:101F4000200200004DFFFFFFC0010000DC00000088
:101F50000C00000070B582B0041C0E1C1B4D7D44AB
:101F6000002801D172B6FEE7194BEB589847236859
:101F7000226CE06B5043191861600021A163A360DB
:101F8000821A9B18E36001235B426364A364002E02
:101F90000DD12169002912D0201C10300D4BEB58B7
:101FA000984701280BD10C4BEB58984707E0201CB1
:101FB00010300A4BEE58B047201C2430B047084B75
:101FC000EB589847012002B070BDC046CA270000F8
:101FD00020020000DC00000048010000B800000002
:101FE0000C000000F0B583B0061C0F1C134D7D449F
:101FF000002814D05020124BEB589847041E0ED0E6
:10200000381C704301300E4BEB5898472060002875
:1020100007D1201C0B4BEB58984700E0FEE772B647
:10202000FCE7E6632764201C0121074BEB58984727
:102030000023E364201C03B0F0BDC0463A27000033
:10204000B00000006C000000E4010000F0B55F4645
:1020500056464D464446F0B487B0051C0F1C03920B
:102060001E1C5C4C7C44002801D172B6FEE700299E
:1020700004D1026C002A01D072B6FEE7022E04D110
:10208000EB6B012B01D072B6FEE7534BE358984738
:10209000002802D1039A002A07D1002399464F4B0A
:1020A000E358029304AA904601E072B6FEE7029B51
:1020B0009847AB6BEA6B934201D3022E25D1281CC3
:1020C000391C321C464B7B449847EB6C002B0AD0E2
:1020D000281C311C434B7B449847012810D1424BAC
:1020E000E35898470CE06A6A002A09D0281C24307B
:1020F0003E4BE3589847012802D13B4BE3589847A1
:102100003B4BE358984701205DE0039B002B04D133
:10211000374BE3589847002055E04A46002A05D13E
:102120004046344BE358984701239946304BE358D7
:102130009847314BE3589847284BE35898476B6CC6
:10214000013301D100236B64AB6C013301D1002357
:10215000AB64274BE3589847404603A9274BE35805
:102160009847002827D11D4BE3589847AA6B934600
:10217000EB6B9A461E4BE3589847D34513D1281C66
:10218000103003991E4BE3589847281C1D4B7B4485
:1021900098471D4BE3589847002800D087E7124B1B
:1021A000E358984783E7281C184B7B449847164B05
:1021B000E35898477BE7281C154B7B449847124B04
:1021C000E3589847002007B03CBC90469946A24689
:1021D000AB46F0BDC4260000000200002002000053
:1021E0009BFCFFFF1BFDFFFF48010000DC0000001F
:1021F0000C0000001C020000FC000000F4000000C5
:1022000054000000F7FCFFFFA0010000DBFCFFFF13
:10221000CBFCFFFFF0B54F464646C0B483B0041C6C
:102220008946171C1D1C304E7E44002801D172B611
:10223000FEE7002904D1036C002B01D072B6FEE743
:10224000022D36D1E26B012A3DD072B6FEE7201C8A
:1022500049462A1C254B7B449847A36C01331FD168
:10226000E36C002B0CD0201C291C214B7B4498478D
:10227000012501282DD1002F17D001233B6028E034
:102280000125626A002A24D0201C2430194BF358FF
:10229000984700281DD0002F09D001233B6018E08B
:1022A000A36C0133A364012513E0012511E001258E
:1022B0000FE0114BF35898478046A36BE26B9342B3
:1022C000C5D3002505E00C4BF35898478046A36B17
:1022D000BDE74046094BF3589847281C03B00CBC97
:1022E00090469946F0BDC046002500000BFBFFFF5D
:1022F00085FBFFFFDC000000F8010000F800000093
:10230000F0B55F4656464D464446F0B487B0051CCE
:102310000E1C03929946644C7C44002801D172B68D
:10232000FEE7002904D1036C002B01D072B6FEE752
:102330005E4BE3589847002802D1039B002B08D13D
:10234000002398465A4BE358029304AF01239A4660
:1023500001E072B6FEE7029B9847AB6B002B33D0CF
:10236000EF68281C311C534B7B4498474B46002B8D
:1023700017D1AB6B013BAB632B68002B03D14E4BEA
:10238000E358984768602B69002B18D0281C103040
:102390004A4BE3589847012811D1494BE3589847D5
:1023A0000DE0EF606B6A002B09D0281C2430434BF2
:1023B000E3589847002802D0414BE3589847414BD7
:1023C000E3589847012068E0039B002B04D13D4B64
:1023D000E3589847002060E04346002B04D1381CA6
:1023E000394BE3589847D046364BE3589847374B1C
:1023F000E35898472E4BE35898476B6C013301D153
:1024000000236B64AB6C013301D10023AB642D4B13
:10241000E3589847381C03A92D4BE35898470028E8
:1024200033D1234BE3589847AB6B9B46254BE3587E
:1024300098475B46002B20D12B68002B09D11C4B01
:10244000E35898476868234BE35898471D4BE35877
:102450009847281C243003991F4BE3589847281CA1
:102460001E4B7B4498471E4BE3589847002800D0EA
:1024700071E7134BE35898476DE7281C194B7B44D1
:102480009847174BE358984765E7281C164B7B4441
:102490009847134BE3589847002007B03CBC904640
:1024A0009946A246AB46F0BD102400000002000091
:1024B00020020000E5FAFFFF78010000DC000000C8
:1024C000480100000C0000001C020000FC0000009D
:1024D000F40000001C0100005400000023FAFFFF7C
:1024E000A001000007FAFFFFF7F9FFFF70B582B007
:1024F000041C0E1C104D7D44104BEB589847636C28
:10250000013301D100236364A36C013301D10023A3
:10251000A3640B4BEB589847A36B002B05D1201CF1
:102520002430311C074BEB589847201C064B7B444A
:10253000984702B070BDC046322200002002000061
:102540000C0000002C01000057F9FFFF002801D10A
:1025500072B6FEE70023084A7A444169914209D1E4
:10256000836A064A7A441432934202D05A42534153
:1025700000E00023181C7047A8F6FF1F9CF6FF1F01
:102580000A4B7B449B6A1B68002B05D101225242F7
:10259000074B7B441A6008E0064B7B449B6ADB6870
:1025A000DB685A68044B7B441A6070477EF6FF1F55
:1025B0006EDAFF1F66F6FF1F5ADAFF1F10B582B0F2
:1025C000041C164B7B44164A9A5812685060154AF0
:1025D0007A44D26A90420BD2134A7A44106B104A62
:1025E0009A5811680431114A9A580192904712E0A2
:1025F0000F4A7A44906A0A4A9A58116804310B4A81
:102600009A58019290470B4B7B441B689C4202D224
:10261000094B7B441C6002B010BDC0466421000021
:102620003C00000030F6FF1F26F6FF1F5C01000093
:102630000EF6FF1FF8D9FF1FEED9FF1FF0B55F465A
:1026400056464D464446F0B485B080460F1C161CD5
:102650009B46754D7D44002801D172B6FEE70E9A67
:10266000042A01D972B6FEE74020704BEB58984718
:10267000041E00D1CEE0109B002B00D0B7E0B000CC
:102680006A4BEB5898472063002800D0B1E0201C2B
:10269000674BEB589847BDE0F95CE2183432117093
:1026A000FA5C002A02D00133052BF5D10022382331
:1026B000E2540E9F042F00D90427E762E763221D2E
:1026C0009146101C5B4BEB5801939847201C183027
:1026D000019B984724610523DF1BA7616462301CBE
:1026E00041465A46544BEB58984720600F9A002AAF
:1026F00000D01460514BEB589847514B7B445A6BB8
:1027000001325A634F4BEB581B68002B34D14D4BB1
:10271000EB581C604C4B7B445B6B012B3BD14B4B10
:102720007B441E1C38361F1C9C37494BEB580093CA
:10273000301C009B98471436BE42F9D1454A7A4472
:1027400090461C239B46C3445846414BEE58B04725
:1027500030229246C2445046B0473F4F7F44381C17
:102760001430B04740464430B047381CB0475B4651
:10277000BB6252463A630EE0384B7B449B6D002BA4
:1027800009D1304BEB581B68DB6A0E9A9A4202D390
:102790002C4BEB581C60324A7A44D36D0133D3651D
:1027A000E36A126E934202D92E4A7A4413669A0063
:1027B000D3189B002C4878443830C01849462B4B1E
:1027C000EB5898472A4BEB5898472A4B7B449B6D14
:1027D0000120002B20D01B4BEB581B68DB6A0E9AA4
:1027E0009A4219D9244BEB589847012014E0109BCA
:1027F0000363224AB3189B00226BD31807221E1CC6
:1028000096433A783423E2543B78002B00D14DE7CD
:10281000012341E70120404205B03CBC9046994667
:10282000A246AB46F0BDC046D4200000B000000078
:102830006C00000090000000100200002002000068
:1028400004F5FF1F3C000000EAF4FF1FE0F4FF1F47
:10285000B800000042F5FF1FA4F4FF1F06F5FF1F9C
:10286000E8F4FF1FD6F4FF1F4AF4FF1F7C000000AE
:102870000C000000B4F4FF1F48010000FFFFFF3F01
:1028800070B582B0051C1E4C7C44002801D172B684
:10289000FEE71C4BE3581B6898422ED01A4BE358B6
:1028A0009847281C194B7B449847012822D12E1D9C
:1028B000301C174BE3589847EB6A164A7A44126E5D
:1028C000934202D9144A7A4413669A00D3189B00A3
:1028D000124878443830C018311C114BE3589847DF
:1028E000084BE3581B68EA6ADB6A9A4202D30D4B35
:1028F000E35898470C4BE358984702B070BDC04668
:10290000A01E00003C00000020020000A3FCFFFF0E
:1029100008010000C4F3FF1FBAF3FF1F2EF3FF1FCF
:102920007C000000480100000C000000F0B54746A4
:1029300080B482B0051C244C7C44002801D172B6BE
:10294000FEE7224BE35898478046281C204B7B44E7
:102950009847002601282ED11E4B7B449B6E002BEE
:1029600020D11D4BE3581B68DB6AEA6A9A42764124
:102970002F1D381C194BE3589847EB6A184A7A44C4
:10298000126E934202D9174A7A4413669A00D318FA
:102990009B00154878443830C018391C134BE35855
:1029A000984708E0291C18311148784414300F4B1F
:1029B000E3589847002640460E4BE3589847301C92
:1029C00002B004BC9046F0BDF01D0000F80100000C
:1029D000FBFBFFFF26F3FF1F3C0000000801000087
:1029E00002F3FF1FF8F2FF1F6CF2FF1F7C000000D4
:1029F00056F2FF1FF800000030B587B0144C7C443D
:102A000000230093019302930393124878441249E0
:102A100079448C22114D6559A847012811D1104BDA
:102A2000E358984701280CD172B601220D4B7B4424
:102A30009A6500220C4B7B44DA620C4BE3589847B2
:102A400003E0002801D172B6FEE707B030BDC046F2
:102A50002A1D0000BD030000DC1C0000580000001F
:102A60006401000052F2FF1FCAF1FF1F4C0000007A
:102A7000024B7B449A6E01329A6670470EF2FF1F3A
:102A800030B583B0064C7C44064BE3589847064B60
:102A90007B44DD6A054BE3589847281C03B030BDE2
:102AA000A21C00002002000070F1FF1F0C000000BB
:102AB00030B583B0064C7C44064BE3589847064B30
:102AC0007B44DD6A054BE3589847281C03B030BDB2
:102AD000721C0000F801000040F1FF1FF800000028
:102AE000F0B557464E464546E0B482B04A4D7D4467
:102AF0004A4B7B449B6E002B00D078E0484B7B44D4
:102B0000DA6A0132DA62DF6A002F15D1454B7B4465
:102B10009B6A1B68002B01D072B6FEE7424B7B44D8
:102B20009A6A196B99621A63404B7B44DA6E0132E0
:102B3000DA663F4B7B4498473E4B7B441B6800243E
:102B40009F4246D33C4A7A4492463C4B7B443833BE
:102B5000994600E001245246936A1B68002B05D178
:102B600001225242364B7B441A6032E0354B7B44A3
:102B70009B6ADB68DE6873689F4203D2324A7A44FC
:102B8000136026E0331D9846181C304BEB589847CD
:102B9000B26A002A04D0301C18302C4BEB589847EE
:102BA000F36A2B4A7A44126E934202D9294A7A4434
:102BB00013669800C018800048444146264BEB58E5
:102BC0009847264BEB581B68F26ADB6A9A42C1D2DF
:102BD000C1E7224BEB581B68DB6A9A00D3189B00B5
:102BE0001F4A7A44D3189B6B012B07D807E01D4B73
:102BF0007B441A6F01321A67002400E001241A4B4B
:102C00007B445B6F002B00D00124201C02B01CBC55
:102C100090469946A246F0BD3A1C00008EF1FF1F77
:102C200002F1FF1FF2F0FF1FE2F0FF1F56F1FF1F3E
:102C300049FAFFFFC6D4FF1FBAF0FF1FB4F0FF1F11
:102C40009AD4FF1F92F0FF1F82D4FF1F08010000DB
:102C5000DCF0FF1FD2F0FF1F7C0000003C000000F2
:102C60001EF0FF1F90F0FF1F80F0FF1FF0B54F46D2
:102C700080B482B03F4C7C443F4B7B449B6E002B26
:102C800001D172B6FEE73D4BE35898473C4B7B447D
:102C90009A6E013A9A669B6E0025002B61D1394BE2
:102CA0007B445B6B002B5CD0374A7A449146374BB0
:102CB0007B441E1C383629E0354B7B441B6ADD689B
:102CC000281C1830334BE358019398472F1D381CAC
:102CD000019B9847EB6A304A7A44126E934202D9BC
:102CE0002E4A7A4413669800C01880003018391CA8
:102CF0002B4BE35898472B4BE3581B68EA6ADB6A77
:102D00009A4203D30122284B7B445A674A465269B0
:102D1000002AD1D1254B7B441B6F002B17D0244BAD
:102D20007B441B6F002B12D0224BE3580193224EA1
:102D30007E440125019B9847002800D075671F4BF2
:102D40007B441A6F013A1A671B6F002BF2D11C4BA0
:102D50007B445B6F0025012B03D11A4BE358984746
:102D60000125194BE3589847281C02B004BC914632
:102D7000F0BDC046B21A000006F0FF1F200200009E
:102D8000F2EFFF1F60EFFF1F56EFFF1F50EFFF1F17
:102D900046EFFF1F08010000A8EFFF1F9EEFFF1F77
:102DA0007C0000003C00000078EFFF1F6AEFFF1F6F
:102DB00060EFFF1FD001000050EFFF1F40EFFF1F2B
:102DC00030EFFF1F480100000C000000F0B54F4637
:102DD0004646C0B483B01E4C7C441E4E7E441E4A00
:102DE0007A4490461D4F7F4427E01D4BE358984797
:102DF0007D6C1C4BE3589847002D1ED01A4BE358AE
:102E000098471A4D7D442B6DDA689146101C0430AA
:102E1000174BE3589847174B7B445A6B013A5A6358
:102E20006B6E013B6B66144BE35898474B46186B2F
:102E3000124BE558A8474846A847736E002BD4D1DB
:102E40004246926B012AF8D90D4BE3589847F4E7B4
:102E500050190000A4EEFF1F20EEFF1F9AEEFF1F87
:102E6000FC000000A0010000200200007CEEFF1F1B
:102E700008010000E8EDFF1F0C0000006C000000DE
:102E80004801000030B527487844274B7B449B6EAF
:102E9000002B04D00122254B7B445A6741E0244B90
:102EA0007B4400225A671B6E9A00D3189B00214A6C
:102EB0007A44D3189B6B002B1BD11F4B7B441B6E9A
:102EC000002B05D102E0226E002A07D172B6FEE780
:102ED0001A4B7B441A4D7D441A4C7C441A6E013ABD
:102EE0001A661A6E91008A189200AA18926B002A2C
:102EF000E9D0154B7B441B6E9A00D3189B00134AF4
:102F00007A443832D3185A6852685A60191C08310A
:102F10008A4201D152685A605B68DA680C4BC35828
:102F20001A6030BDA0180000F4EDFF1FE8EDFF1F90
:102F3000E0EDFF1F50EDFF1FC4EDFF1FAEEDFF1FC3
:102F40002AEDFF1FA6EDFF1F8CEDFF1F00EDFF1FF9
:102F50003C00000070B582B0051C2A4C7C442A4B12
:102F6000E3589847002D02D1284BE3581D682E1DC9
:102F7000301C274BE3589847AB6A002B04D0281C21
:102F80001830234BE358984722487844311C224B91
:102F9000E3589847214BE35898471C4BE3581B686C
:102FA0009D421ED11E4B7B449B6D002B0AD01D4BB6
:102FB0007B449B6E002B01D072B6FEE71A4BE358A0
:102FC00098471CE0194B7B445A6B1B68934204D111
:102FD0000E4BE35800221A6011E0154BE358984756
:102FE0000DE0144B7B449B6D002B08D0064BE3583F
:102FF0009847114B7B449847084BE358984702B0D9
:1030000070BDC046CC170000200200003C0000004C
:103010000801000076ECFF1F7C0000000C0000009F
:10302000DAECFF1FD0ECFF1F480100003AECFF1F55
:10303000240100009CECFF1F89F5FFFF70B582B0F2
:103040000D1C134C7C44002801D172B6FEE7114BD5
:10305000E65831681831104BE3589847306804300F
:103060000E4BE35898476B1C09D10A4BE35819687B
:1030700004310B4878440B4BE358984706E00A4B61
:103080007B44D86A2818094B7B44984702B070BD2E
:10309000E41600003C0000005C0100000801000094
:1030A0008CEBFF1F7C00000080EBFF1F31F5FFFF62
:1030B00070B582B00E1C0D4C7C44002801D172B654
:1030C000FEE70B4BE558296818310A4BE35898473F
:1030D00028680430084BE3589847084B7B44D86A6B
:1030E0003018074B7B44984702B070BD7016000043
:1030F0003C0000007C0000000801000024EBFF1FE2
:10310000D5F4FFFF70B582B0214C7C44C368DD6804
:10311000002D01D172B6FEE72E1C1836301C1D4B57
:10312000E35898471C4B7B449B6E002B19D12E1DF6
:10313000301C184BE3589847EB6A184A7A44126ED1
:10314000934202D9164A7A4413669A00D3189B0018
:10315000144878443830C018311C134BE358984752
:1031600006E0124878441430311C0F4BE35898475E
:103170000F4BE3581B68EA6ADB6A00209A4204D9C5
:1031800001220C4B7B445A67012002B070BDC0463F
:103190001E160000080100005AEBFF1F44EBFF1F42
:1031A0003AEBFF1FAEEAFF1F7C0000009CEAFF1F06
:1031B0003C000000FCEAFF1F002801D172B6FEE7C8
:1031C000044B7B44DB6E0360034B7B44DB6A436050
:1031D0007047C046BEEAFF1F36EAFF1FF0B583B056
:1031E000041C0F1C184E7E44002801D172B6FEE765
:1031F000002901D172B6FEE7144BF3589847144BDF
:103200007B44DA6A3B68581C17D012497944C96E6E
:103210002068884203D0012561688A420ED2616825
:10322000501A0125834209D98A1AD3183B60201C01
:10323000094BF3589847002500E00025074BF35849
:103240009847281C03B0F0BD421500002002000082
:1032500000EAFF1F74EAFF1F1C0200000C000000C0
:103260000122024B7B445A677047C0461CEAFF1F8D
:10327000024B7B44024A9B5818687047B614000002
:103280003C000000064B7B449B6D0120002B05D0C9
:10329000044B7B44986E4342584140007047C046FF
:1032A000FAE9FF1FEEE9FF1F70B582B0041C224D42
:1032B0007D4400283DD0C36A204AAA581268D26AC9
:1032C000934236D28269002A06DB1C4AAA58126849
:1032D000D26A05218A1A82619A00D3189B00184A83
:1032E0007A443832D31862699A421DD1261D301CA7
:1032F000144BEB589847114BEB581B68DB6AE362A1
:10330000114A7A44126E934202D9104A7A441366E3
:103310009800C3189B000E4878443830C018311C00
:103320000C4BEB58984704E0044BEB581B68DB6AE6
:10333000E36202B070BDC046781400003C0000009B
:1033400020E9FF1F080100007EE9FF1F74E9FF1F4D
:10335000E8E8FF1F7C00000070B582B0041C154D2A
:103360007D44002823D0C26AC36B9A421FD0061D39
:10337000301C114BEB589847E36BE362A269002ABB
:1033800002DB0522D21AA2610C4A7A44126E9342E1
:1033900002D90B4A7A4413669800C3189B00094867
:1033A00078443830C018311C074BEB58984702B0AE
:1033B00070BDC046C813000008010000F6E8FF1FFA
:1033C000ECE8FF1F60E8FF1F7C00000030B583B011
:1033D000041C114D7D444160206191420DD8D21AE8
:1033E0000120A3699A4215D20C4B7B441868211D19
:1033F0000B4BEB58984700200CE09A4202D2012078
:10340000994207D2074B7B445868211D044BEB5867
:103410009847002003B030BD5413000012E9FF1F8D
:103420005C010000F6E8FF1FF0B583B0164C7C4449
:10343000164BE3589847164B7B449B68002B1DD1D5
:10344000144D7D442E1C0C36301C134BE358019355
:1034500098472F1C2037381C019B98476E602F60BF
:1034600002200C2100220D4BE3589847002803D07E
:103470000B4B7B44986001E072B6FEE7094BE358C2
:10348000984703B0F0BDC046FA12000020020000C9
:10349000C4E8FF1FBAE8FF1FB80000007C0100006D
:1034A0008AE8FF1F0C00000030B587B00F4C7C4449
:1034B0000F4B7B4498470F4B7B449B68002B10D0ED
:1034C0000223009300230193029303930A48784454
:1034D0000A49794450220A4D65590595A8470028A4
:1034E00001D172B6FEE707B030BDC0467A120000C7
:1034F00073FFFFFF44E8FF1F0B02000022120000D1
:1035000058000000F0B54F464646C0B483B081462F
:103510000E1C90461F1C114D7D44002916D02820FA
:103520000F4BEB589847041E12D00E4B7B44984724
:103530004B462360A6614346E36127620A9B6362B0
:10354000201D094BEB58984702E0FEE772B6FCE7F6
:10355000201C03B00CBC90469946F0BD1012000030
:10356000B0000000F9FEFFFF9000000070B586B0CB
:10357000194C7C44194D7D44AE68002E28D003912F
:103580000492059005291ADC154BE3589847022848
:103590000AD1144B7B44986803A90A9A0023124D60
:1035A00065590195A84714E0104B7B44986803A91E
:1035B000002200230C4D65590195A84709E0301CF5
:1035C00003A91A1C00230A4D65590195A84700E07C
:1035D000002006B070BDC046B611000086E7FF1F90
:1035E0000002000068E7FF1FC400000052E7FF1F51
:1035F00020000000F0B55F4656464D464446F0B404
:1036000085B082462B4E7E442B4BF358984781461B
:103610002A4B7B445B6B98423DD2294979448846CA
:1036200000229346274C7C44039426E0DB681F6805
:10363000DC68251D281C244BF3589847201C616A20
:103640008847E269012A18D1A1697B18BB4208D9D1
:1036500063602461039C6068291C1C4BF3589847E5
:103660000BE059460091201C3A1C5B46184C34591B
:10367000A047002801D172B6FEE7424653681C6895
:10368000002CD3D1134A7A4411685160136001238E
:103690005246136002E00023544623600E4B7B44E5
:1036A00049465963484605B03CBC90469946A246F7
:1036B000AB46F0BD22110000C0000000EAE6FF1F8B
:1036C000E0E6FF1FD6E6FF1F080100005C010000D6
:1036D0003801000076E6FF1F5EE6FF1FF0B55F468B
:1036E00056464D464446F0B489B06948784483460E
:1036F00068497944894605AC674A7A4492464D4602
:103700006B681E68002E00D1B5E0DB681D68634B56
:103710005F46FB589847201C614B7B449847061C2A
:103720000598002840D1B5422DD85E4BFB589847EC
:103730005D4B7B445B68DB68D9688846081C0430B5
:103740005A4BFB5898474246D269012A16D1434644
:103750009B69E9184046321C2B1C554E7E44B047ED
:1037600001280BD100230093404600212A1C514D13
:103770007D59A847002801D172B6FEE745466B6A1D
:103780004046984714E04C4B7B449868A91B4B4B30
:103790005E46F3589847434BF3589847002807D1A3
:1037A000474BF358984703E03E4B5F46FB5898471A
:1037B000444E7E44444B5846C55854E02168002985
:1037C00051DBA26890465369002B05D0101C0430D1
:1037D000364B5F46FB58984704A83C4B7B449847C0
:1037E000031C206809283ED800F0F2FD0505053DC0
:1037F0002A3805053D2A67684046806939184046E1
:103800001A1C3B1C324F7F44B84701282BD140463D
:10381000416A88474246D269012A24D143469B69BE
:103820006768DA190023009340460021214FBC4607
:103830005F4667443F68B847002814D172B6FEE778
:10384000616840468161002901D172B6FEE75918CE
:1038500040461A1C1F4F7F44B84704E040461E4BA9
:103860005946CB589847B068211C00220023A8472E
:103870000028A3D143E7094B5A46D3589847201C48
:10388000D047061C0025059BAB4200D17BE78BE7A8
:103890003C1000000AE6FF1FF7FEFFFFFC000000DF
:1038A000D7FEFFFFA0010000CAE5FF1F08010000CE
:1038B0006DFCFFFF3801000074E5FF1F14000000DD
:1038C000480100004AE5FF1FC801000015FEFFFF88
:1038D000C3FBFFFF73FBFFFF6C000000FEE7C04669
:1038E000F0B583B03B4C7C443B4BE35800933B4BDF
:1038F000E3580098984207D0384BE3580093384B70
:10390000E358009A9A4208D3364BE3580093364B5B
:10391000E358009D9D4218D326E0314BE3580093B5
:103920002E4BE358D94300980918890801318900C2
:1039300000232A4AA2580192274AA258D058019D32
:10394000E85004338B42F9D1DEE7264BE3581A1DC9
:103950002549615800910331891A89088900521854
:10396000002102C39342FCD1204BE3580093FF2374
:10397000009A9A431E4B9A60022190235B001D4AD5
:10398000D1501D4BD8780321884302221043D870B0
:10399000DE780C25AE4308200643DE70174B9F7B74
:1039A0003026B74320263E439E739E7BAE43304372
:1039B0009873987B884302439A73114B596880220D
:1039C0000A435A600F4BE35898470F4BE358984708
:1039D000FEE7C046420E000040000000600000000C
:1039E000E001000048000000680100003000000015
:1039F00000ED00E00070004100500041004800412F
:103A000000400041A80000005401000000B583B050
:103A1000234B7B4408283ED800F0DAFC083D3D05E6
:103A200005140C1833008020000237E01D4B7B4446
:103A3000186933E01C4B186A8005800F1B4BC3408C
:103A4000181C2BE01A4B7B44586927E0194A7A442A
:103A500012680220104021D013481021C268114280
:103A6000FCD0154A7A441268510716D50020134A33
:103A70009A589047124B7B449B681B041B0C58437D
:103A80000CE05023084AD35C00205A0706D50D4BA2
:103A90007B44D86802E0002000E00B4803B000BD82
:103AA000160D000006E3FF1F0008004000127A0018
:103AB000EEE2FF1FE6E2FF1FD0E2FF1F140100004D
:103AC000BEE2FF1FA4E2FF1F006CDC0270B50C4BCE
:103AD0001C6A0178857840780122104080014026D8
:103AE000B44304432A40D00180229443221C024361
:103AF000032001400902034802400A431A6270BDD4
:103B000000080040FFFCFFFFF0B55F4656464D46FB
:103B10004446F0B4264A948A45780378594259417C
:103B20008A4683789C46C178884603799946467BC5
:103B3000077B817B8B4680681E4B7B445861012349
:103B40005146880004218C43044348461840C00075
:103B500008218C43044340461840000110218C4347
:103B6000044360461840400120218C430443181C44
:103B7000384080014027BC430443181C3040C0013A
:103B80008026B44304430720284000020A4D2C40FD
:103B9000044359460B4019030848231C03400B43B8
:103BA00093823CBC90469946A246AB46F0BDC046C7
:103BB00000080040FAE1FF1FFFF8FFFFFFEFFFFFE3
:103BC000F0B583B0041C264E7E44C568037D012BEE
:103BD00007D1018A01314900224BF358281C98472C
:103BE000051CA36818011F4BF358291C98470F2286
:103BF000024000096678B6012378DB011E43F6B265
:103C0000194B44215E541604411E0905090D314328
:103C10009964E678F600A178090331432679B60065
:103C20003143A67C03273E403143268A36040F4F9A
:103C30003E403143E77C3F02E026F6003E40314300
:103C4000247D2401302634402143D9640001121818
:103C500055432D09064B7B44DD6003B0F0BDC046E3
:103C6000600B000060010000000800400000FF073A
:103C7000DEE0FF1F00B508284FD800F0A9FB154E65
:103C80004E050E1C07234600002047E0244B196A0E
:103C900002220A431A62002040E0214B9969022265
:103CA0000A439A61002039E01D4B198A02220A4317
:103CB0001A82002032E01A4B998A02220A439A8221
:103CC00000202BE0174A7A4411680223194311603F
:103CD000134A9384111C1022CB681A42FCD0124A5A
:103CE0007A4491680E4BD96252689A6200229A8493
:103CF000191C1022CB681A42FCD00C4B7B441A686A
:103D000092B2074B9A84002008E0054A4423D05C15
:103D100002210143D154002000E0172000BDC0461D
:103D2000000800406EE0FF1F54E0FF1F38E0FF1F57
:103D300000B5082823D800F04BFB072222051909FB
:103D4000170B0D0001201BE0012310E002230EE001
:103D500010230CE050230B4AD05C03231840033897
:103D600043425841C0B20BE0082300E00423054A57
:103D7000D0681840C01A43425841C0B200E0002049
:103D800000BDC04600080040F0B591B0484F7F44E8
:103D9000C222D200474B9A60474A51681E2399437A
:103DA00002231943516002AA13700024161C434BCE
:103DB000FD58E0B2311CA8470134252CF9D100236D
:103DC0000CA803708370802212028260C3700122EB
:103DD000027103738373062242704373384BFB589E
:103DE00098470520374BFB589847374BFC58052020
:103DF000A0470028FBD02F4B998A80220A439A8241
:103E000000240BA844700126867004702F4BFB58C9
:103E1000984706202B4BFD58A8472D4BFB58984739
:103E200002A94E604C700C724C7205230B7001207D
:103E3000284BFB5898470120274BFB58984705A86B
:103E400044708470C4700471244B836080231B020F
:103E5000C36006820475C47484740470204BFB58DC
:103E600098470820A847184BFC580820A04700286E
:103E7000FBD0104A4423D05C802149420143D154F5
:103E8000184A0023137253729372D372012202A94B
:103E90004A604B700B724B7208230B7000200D4B65
:103EA000FB58984700200C4BFB58984711B0F0BDC9
:103EB0009A09000000080040004000417000000026
:103EC00084010000BC010000E8010000BC0000000B
:103ED000140200009C00000034010000006CDC02B1
:103EE0000000000000040040064B996908220A43C4
:103EF0009A610122044B1A70191C0B781342FCD1F1
:103F00007047C04600040040000C0040F0B5474632
:103F100080B482B0071C2D4E7E4480460D782D0261
:103F200005434B78002B02D08023DB021D434B7AE4
:103F3000002B02D080231B031D434C68012C19D990
:103F4000631E1C4210D1022C06D90223002201322A
:103F50005B009C42FBD800E0002212023A439046EC
:103F600080235B031D4305E024023C43A0468023DD
:103F70009B021D430B7A002B02D080239B031D4321
:103F8000134A53785BB2002BFBDB124BF358984774
:103F9000114B1F700E4A53785BB2002BFBDB0C4BAE
:103FA00042469A601A1C53785BB2002BFBDB084B2D
:103FB0005968802252020A4015435D60074BF3584E
:103FC000984702B004BC9046F0BDC04610080000FF
:103FD000000C004084000000080C004004000000B9
:103FE00030B583B0051C0E4C7C440E4A53785BB24E
:103FF000002BFBDB0C4BE35898470C4B1D70094A18
:1040000053785BB2002BFBDB064B596880225202CF
:104010000A435A60064BE358984703B030BDC04688
:1040200040070000000C004084000000040C004029
:1040300004000000F0B583B0051C1E4C7C441E4AF1
:1040400053785BB2002BFBDB1C4BE35898471C4BAF
:104050001D70194A53785BB2002BFBDB164F786852
:10406000C004C00E174BE3589847061C144B1D7034
:104070007F68FF02FF0F144B1D700F4A53785BB22D
:10408000002BFBDB0C4B9D682D0AADB20F4BE358A8
:104090009847002F08D1012D08D90D4BE358301C4B
:1040A000291C9847061C01E00135EE40301C03B086
:1040B000F0BDC046EC060000000C0040840000008B
:1040C000040C0040D4010000080C00400400000073
:1040D0006001000030B583B0051C094C7C44094BDD
:1040E000E3589847084B1D70084B59888022D2012D
:1040F0000A435A80064BE358984703B030BDC04688
:104100004C06000084000000020C0040000C00403F
:104110000400000030B583B0051C124C7C44124BE7
:10412000E3589847114B1D70114B58880005000F3C
:104130005988104A0A405A8059880F4A0A405A80C2
:10414000191C8022D2014B881342FCD1084B01027A
:104150005888084A02400A435A80084BE358984757
:1041600003B030BD0C06000084000000020C0040CB
:10417000000C0040FFF0FFFFFFBFFFFF0400000046
:1041800010B582B0064B7B440C7824020443054AE8
:104190009A5801929047A4B2034B5C8002B010BDC4
:1041A000A2050000F0010000000C004030B583B013
:1041B000051C0A4C7C440A4BE3589847094B1D7078
:1041C000094B5D882D052D0F084BE3589847281C97
:1041D000074BE358984703B030BDC0467405000054
:1041E00084000000020C0040000C004004000000AD
:1041F000880000007047C04610B582B0094C7C446E
:10420000094BE3589847094BE3589847084BE35844
:104210009847084BE3589847074BE358984702B034
:1042200010BDC0462A050000B401000030010000A6
:10423000B0010000F00000008000000082B0114BCF
:104240007B44114A7A441268002A13D1EFF310829A
:10425000002A0BD172B6BFF35F8F0C4A9A58002325
:10426000137001220A4B7B441A7103E00022094BB0
:104270007B441A71084B7B441A6801321A6002B001
:104280007047C046E804000010DBFF1F94000000E8
:10429000EEDAFF1FE4DAFF1FDEDAFF1F82B00D4AFD
:1042A0007A440D4B7B441968013919601B68002B57
:1042B0000DD10A4B7B441B79002B08D0084BD358F7
:1042C00001930123019A1370BFF35F8F62B602B0AE
:1042D0007047C04688040000B0DAFF1FA0DAFF1F55
:1042E0009400000010B584B0084A7A44802403ABDF
:1042F0001C700C785C704C789C708978D970191C93
:10430000034BD358984704B010BDC0463E0400008C
:104310000C02000030B5D378002B1ED11378802B0F
:1043200004D01B0680246402234300E00023547859
:104330000225AC430AD19478002C03D18024A40236
:10434000234302E0C024E402234341605478013C4B
:10435000012C04D8114C234001E0416000230D04DE
:104360002D0CA024E4052C431C4384620D0CD024A6
:1043700024062C431C438462D478002C0CD15C03AB
:1043800005D59378012B01D1816100E0416153781B
:10439000013B012B00D8816030BDC046FFFFFBFF11
:1043A00008B5031C0A1CC1090020002903D15809C3
:1043B000C001054940181F210B4001219940034BC2
:1043C0007B44984708BDC0460044004151FFFFFFB1
:1043D00002B4714649084900095C49008E4402BC98
:1043E0007047C046002934D00123002210B488420F
:1043F0002CD301242407A14204D2814202D2090114
:104400001B01F8E7E400A14204D2814202D2490034
:104410005B00F8E7884201D3401A1A434C08A042D7
:1044200002D3001B5C0822438C08A04202D3001B6D
:104430009C082243CC08A04202D3001BDC08224384
:10444000002803D01B0901D00909E3E7101C10BCA8
:104450007047002801D00020C04307B4024802A1E1
:104460004018029003BDC046190000000029F0D09A
:1044700003B5FFF7B9FF0EBC4243891A1847C0467F
:104480007047C0469C460304F0B51B0C17043F0C54
:10449000150C1E1C041C000C7E436B434743454314
:1044A000FB18300C1818874202D980235B02ED18E4
:1044B000030CED1863465C434A433604360CA118DE
:1044C000000480194919F0BD70B50D4E0D4D002442
:1044D000AD1BAD1005D0A300F35801349847A54299
:1044E000F9D100F011F9084E084D0024AD1BAD10B4
:1044F00005D0A300F35801349847A542F9D170BD07
:104500001447000014470000144700001C47000037
:10451000F0B50F2A35D9031C0B439C0735D1161C67
:10452000103E36093501451910350C1C031C27684F
:104530001F6067685F60A7689F60E7681034DF608E
:104540001033AB42F3D1731C1B01C518C9180F23DC
:104550001340032B1BD91C1FA4080134A400002303
:10456000CE58EE500433A342FAD1ED18C9180323F4
:104570001A4005D00023CC5CEC5401339342FAD1AD
:10458000F0BD051C002AF5D1FAE7051CF2E71A1C5C
:10459000F8E7C04608B5034B002B02D0024800F0F4
:1045A00005F808BD00000000BD45000008B5011C6D
:1045B00000220020002300F019F808BD38B5094B8F
:1045C000094DED1AAD1009D0013DAC00E41800E032
:1045D000013D23689847043C002DF9D100F09EF876
:1045E00038BDC046284700002C470000F0B54F46B4
:1045F0004646C0B498462B4BA4251B686D005C59F9
:1046000083B0061C0F1C91460193002C44D06568B2
:104610001F2D1ADD244B002B02D1012040421CE04B
:10462000C820400000E000BF041EF6D00025456011
:10463000A42301985B00C05801992060CC50C4238A
:104640005B00E550C6235B00E550002E0AD16B1CD1
:104650000235AD00636000202F5103B00CBC9046C2
:104660009946F0BDAB00E318882248469850C42014
:104670004000221810680121A940084310608422DC
:10468000520040469850022EE1D1C6225200A31893
:10469000186801431960DAE71C1C4D34FF345C5183
:1046A000B5E7C046044700000000000049724441DD
:1046B0000000000050696E670000000053796E63CF
:1046C0000000000000080042000C00420010004200
:1046D00000140042435F547800000000435F5278AA
:1046E000000000004372780043747800090A0B0C44
:1046F00049444C4500000000546D7220537663001D
:104700004300000010000020F8B5C046F8BC08BC0B
:104710009E46704795450000D9000000F8B5C04698
:0C472000F8BC08BC9E467047B1000000C9
:10472C00C13B00009D4200003D180000951B00009D
:10473C0005350000ED24000039050000110D0000C6
:10474C0015220000F941000054040020D81D00205F
:10475C0000000000AD180000DA1D0020FC1C002039
:10476C005C490000F10B0000380400207D1C0000A7
:10477C00114500003D3000003D260000E01D0020EA
:10478C0000000020591C000085130000591D00007A
:10479C0081410000E41D0020F31D0020951A00004B
:1047AC00F54100003D420000354000002D2900007D
:1047BC008D1A000008000020791700000D3F000042
:1047CC005C04002085440000C9440000D11700009F
:1047DC00CD1C000011050000751A0000CD3A000038
:1047EC00812A00004D200000AD0F0000A511000033
:1047FC00F41D0020601D0020641D00200531000008
:10480C006C200020F51D00207D0F00002D130000F2
:10481C00F5410000DD310000C91B0000712A0000C9
:10482C00B12A0000F61D0020DD1A0000AD100000BA
:10483C0059330000AD410000F81D0020A9320000E2
:10484C0081280000852E0000681D0020B13000007A
:10485C00F5410000E13F00006D3500009C1D00207B
:10486C00552F0000FC1D0020611B0000D01D0020F6
:10487C000D14000001040000F50A0000AD1A000040
:10488C00E5430000A93400007C200020F912000050
:10489C00001E0020D41D002071320000E51F000016
:1048AC00101E0020093B000001070000D54000004D
:1048BC004101000058200020E5420000CD18000006
:1048CC006D2C0000F9290000D101000081180000B6
:1048DC00F5410000893D000011010000753C00000D
:1048EC00613200005C2000200123000060200020C9
:1048FC00E12A00000D3A0000612000206D44000008
:10490C0038040020551F0000313D0000C912000082
:10491C001541000062200020BD1B00006420002017
:10492C00853200005908000055180000A143000012
:10493C00391B0000E93E000069070000B931000096
:04494C00791B0000D3
:0C4950000000000000000000000000005B
:10495C00AAAAAAAAFFFFFFFF0100000000000000A6
:10496C0000000000FC02002064030020CC030020A7
:10497C00000000000000000000000000000000002B
:10498C00000000000000000000000000000000001B
:10499C0000000000004700000000000000000000C4
:1049AC0000000000000000000000000000000000FB
:1049BC0000000000000000000000000000000000EB
:1049CC0000000000000000000000000000000000DB
:1049DC0000000000000000000000000000000000CB
:1049EC0000000000000000000000000000000000BB
:1049FC0000000000000000000000000000000000AB
:104A0C000000000000000000010000000000000099
:104A1C000E33CDAB34126DE6ECDE05000B0000005E
:104A2C00000000000000000000000000000000007A
:104A3C00000000000000000000000000000000006A
:104A4C00000000000000000000000000000000005A
:104A5C00000000000000000000000000000000004A
:00000001FF
